Component: ARM Compiler 5.06 update 5 (build 528) Tool: armlink [4d35e2]

==============================================================================

Section Cross References

    startup_stm32f746xx.o(RESET) refers to startup_stm32f746xx.o(STACK) for __initial_sp
    startup_stm32f746xx.o(RESET) refers to startup_stm32f746xx.o(.text) for Reset_Handler
    startup_stm32f746xx.o(RESET) refers to stm32f7xx_it.o(i.SysTick_Handler) for SysTick_Handler
    startup_stm32f746xx.o(RESET) refers to stm32f7xx_it.o(i.DMA1_Stream6_IRQHandler) for DMA1_Stream6_IRQHandler
    startup_stm32f746xx.o(RESET) refers to stm32f7xx_it.o(i.TIM2_IRQHandler) for TIM2_IRQHandler
    startup_stm32f746xx.o(RESET) refers to stm32f7xx_it.o(i.TIM3_IRQHandler) for TIM3_IRQHandler
    startup_stm32f746xx.o(RESET) refers to stm32f7xx_it.o(i.TIM4_IRQHandler) for TIM4_IRQHandler
    startup_stm32f746xx.o(RESET) refers to stm32f7xx_it.o(i.USART1_IRQHandler) for USART1_IRQHandler
    startup_stm32f746xx.o(RESET) refers to stm32f7xx_it.o(i.EXTI15_10_IRQHandler) for EXTI15_10_IRQHandler
    startup_stm32f746xx.o(RESET) refers to stm32f7xx_it.o(i.TIM5_IRQHandler) for TIM5_IRQHandler
    startup_stm32f746xx.o(RESET) refers to stm32f7xx_it.o(i.DMA2_Stream0_IRQHandler) for DMA2_Stream0_IRQHandler
    startup_stm32f746xx.o(.text) refers to system_stm32f7xx.o(i.SystemInit) for SystemInit
    startup_stm32f746xx.o(.text) refers to entry.o(.ARM.Collect$$$$00000000) for __main
    stm32f7xx_hal_cortex.o(i.HAL_NVIC_GetPriorityGrouping) refers to stm32f7xx_hal_cortex.o(i.NVIC_GetPriorityGrouping) for NVIC_GetPriorityGrouping
    stm32f7xx_hal_cortex.o(i.HAL_NVIC_SetPriority) refers to stm32f7xx_hal_cortex.o(i.NVIC_GetPriorityGrouping) for NVIC_GetPriorityGrouping
    stm32f7xx_hal_cortex.o(i.HAL_NVIC_SetPriority) refers to stm32f7xx_hal_cortex.o(i.NVIC_SetPriority) for NVIC_SetPriority
    stm32f7xx_hal_cortex.o(i.HAL_SYSTICK_Config) refers to stm32f7xx_hal_cortex.o(i.NVIC_SetPriority) for NVIC_SetPriority
    stm32f7xx_hal_cortex.o(i.HAL_SYSTICK_IRQHandler) refers to stm32f7xx_hal_cortex.o(i.HAL_SYSTICK_Callback) for HAL_SYSTICK_Callback
==============================================================================

Removing Unused input sections from the image.

    Removing startup_stm32f746xx.o(HEAP), (512 bytes).
    Removing stm32f7xx_hal_cortex.o(.rev16_text), (4 bytes).
    Removing stm32f7xx_hal_cortex.o(.revsh_text), (4 bytes).
    Removing stm32f7xx_hal_cortex.o(.rrx_text), (6 bytes).
    Removing stm32f7xx_hal_cortex.o(i.HAL_MPU_ConfigRegion), (92 bytes).
    Removing stm32f7xx_hal_cortex.o(i.HAL_NVIC_ClearPendingIRQ), (28 bytes).
    Removing stm32f7xx_hal_cortex.o(i.HAL_NVIC_DisableIRQ), (28 bytes).
    Removing stm32f7xx_hal_cortex.o(i.HAL_NVIC_GetActive), (40 bytes).
    Removing stm32f7xx_hal_cortex.o(i.HAL_NVIC_GetPendingIRQ), (40 bytes).
    Removing stm32f7xx_hal_cortex.o(i.HAL_NVIC_GetPriority), (148 bytes).
    Removing stm32f7xx_hal_cortex.o(i.HAL_NVIC_GetPriorityGrouping), (8 bytes).
    Removing stm32f7xx_hal_cortex.o(i.HAL_NVIC_SetPendingIRQ), (28 bytes).
    Removing stm32f7xx_hal_cortex.o(i.HAL_NVIC_SystemReset), (68 bytes).
    Removing stm32f7xx_hal_flash_ex.o(.rev16_text), (4 bytes).
    Removing stm32f7xx_hal_flash_ex.o(.revsh_text), (4 bytes).
    Removing stm32f7xx_hal_flash_ex.o(.rrx_text), (6 bytes).
    Removing stm32f7xx_hal_flash_ex.o(i.FLASH_Erase_Sector), (120 bytes).
    Removing stm32f7xx_hal_flash_ex.o(i.FLASH_MassErase), (64 bytes).
==============================================================================

Image Symbol Table

    Local Symbols

    Symbol Name                              Value     Ov Type        Size  Object(Section)

    ../Drivers/CMSIS//Device/ST/STM32F7xx/Source/Templates/system_stm32f7xx.c 0x00000000   Number         0  system_stm32f7xx.o ABSOLUTE
    ../Drivers/STM32F7xx_HAL_Driver/Src/stm32f7xx_hal.c 0x00000000   Number         0  stm32f7xx_hal.o ABSOLUTE
    ../Drivers/STM32F7xx_HAL_Driver/Src/stm32f7xx_hal_adc.c 0x00000000   Number         0  stm32f7xx_hal_adc.o ABSOLUTE
    ../Drivers/STM32F7xx_HAL_Driver/Src/stm32f7xx_hal_adc_ex.c 0x00000000   Number         0  stm32f7xx_hal_adc_ex.o ABSOLUTE
    ../Drivers/STM32F7xx_HAL_Driver/Src/stm32f7xx_hal_cortex.c 0x00000000   Number         0  stm32f7xx_hal_cortex.o ABSOLUTE
    ../Drivers/STM32F7xx_HAL_Driver/Src/stm32f7xx_hal_dma.c 0x00000000   Number         0  stm32f7xx_hal_dma.o ABSOLUTE
    ../Drivers/STM32F7xx_HAL_Driver/Src/stm32f7xx_hal_dma_ex.c 0x00000000   Number         0  stm32f7xx_hal_dma_ex.o ABSOLUTE
    ../Drivers/STM32F7xx_HAL_Driver/Src/stm32f7xx_hal_dsi.c 0x00000000   Number         0  stm32f7xx_hal_dsi.o ABSOLUTE
    ../Drivers/STM32F7xx_HAL_Driver/Src/stm32f7xx_hal_flash.c 0x00000000   Number         0  stm32f7xx_hal_flash.o ABSOLUTE
    ../Drivers/STM32F7xx_HAL_Driver/Src/stm32f7xx_hal_flash_ex.c 0x00000000   Number         0  stm32f7xx_hal_flash_ex.o ABSOLUTE
    ../Drivers/STM32F7xx_HAL_Driver/Src/stm32f7xx_hal_gpio.c 0x00000000   Number         0  stm32f7xx_hal_gpio.o ABSOLUTE
    ../Drivers/STM32F7xx_HAL_Driver/Src/stm32f7xx_hal_i2c.c 0x00000000   Number         0  stm32f7xx_hal_i2c.o ABSOLUTE
    ../Drivers/STM32F7xx_HAL_Driver/Src/stm32f7xx_hal_i2c_ex.c 0x00000000   Number         0  stm32f7xx_hal_i2c_ex.o ABSOLUTE
    ../Drivers/STM32F7xx_HAL_Driver/Src/stm32f7xx_hal_ltdc.c 0x00000000   Number         0  stm32f7xx_hal_ltdc.o ABSOLUTE
    ../Drivers/STM32F7xx_HAL_Driver/Src/stm32f7xx_hal_ltdc_ex.c 0x00000000   Number         0  stm32f7xx_hal_ltdc_ex.o ABSOLUTE
    ../Drivers/STM32F7xx_HAL_Driver/Src/stm32f7xx_hal_pwr.c 0x00000000   Number         0  stm32f7xx_hal_pwr.o ABSOLUTE
    ../Drivers/STM32F7xx_HAL_Driver/Src/stm32f7xx_hal_pwr_ex.c 0x00000000   Number         0  stm32f7xx_hal_pwr_ex.o ABSOLUTE
    ../Drivers/STM32F7xx_HAL_Driver/Src/stm32f7xx_hal_rcc.c 0x00000000   Number         0  stm32f7xx_hal_rcc.o ABSOLUTE
    ../Drivers/STM32F7xx_HAL_Driver/Src/stm32f7xx_hal_rcc_ex.c 0x00000000   Number         0  stm32f7xx_hal_rcc_ex.o ABSOLUTE
    ../Drivers/STM32F7xx_HAL_Driver/Src/stm32f7xx_hal_tim.c 0x00000000   Number         0  stm32f7xx_hal_tim.o ABSOLUTE
    ../Drivers/STM32F7xx_HAL_Driver/Src/stm32f7xx_hal_tim_ex.c 0x00000000   Number         0  stm32f7xx_hal_tim_ex.o ABSOLUTE
    ../Src/main.c                            0x00000000   Number         0  main.o ABSOLUTE
    ../Src/stm32f7xx_hal_msp.c               0x00000000   Number         0  stm32f7xx_hal_msp.o ABSOLUTE
    ../Src/stm32f7xx_it.c                    0x00000000   Number         0  stm32f7xx_it.o ABSOLUTE
    ../clib/../cmprslib/lz77c.c              0x00000000   Number         0  __dclz77c.o ABSOLUTE
    ../clib/microlib/division.c              0x00000000   Number         0  uidiv.o ABSOLUTE
    ../clib/microlib/division.c              0x00000000   Number         0  uldiv.o ABSOLUTE
    ../clib/microlib/init/entry.s            0x00000000   Number         0  entry7a.o ABSOLUTE
    ../clib/microlib/init/entry.s            0x00000000   Number         0  entry5.o ABSOLUTE
    ../clib/microlib/init/entry.s            0x00000000   Number         0  entry10b.o ABSOLUTE
    ../clib/microlib/init/entry.s            0x00000000   Number         0  entry10a.o ABSOLUTE
    ../clib/microlib/init/entry.s            0x00000000   Number         0  entry9b.o ABSOLUTE
    ../clib/microlib/init/entry.s            0x00000000   Number         0  entry2.o ABSOLUTE
    ../clib/microlib/init/entry.s            0x00000000   Number         0  entry9a.o ABSOLUTE
    ../clib/microlib/init/entry.s            0x00000000   Number         0  entry11b.o ABSOLUTE
    ../clib/microlib/init/entry.s            0x00000000   Number         0  entry.o ABSOLUTE
    ../clib/microlib/init/entry.s            0x00000000   Number         0  entry8b.o ABSOLUTE
    ../clib/microlib/init/entry.s            0x00000000   Number         0  entry8a.o ABSOLUTE
    ../clib/microlib/init/entry.s            0x00000000   Number         0  entry11a.o ABSOLUTE
    ../clib/microlib/init/entry.s            0x00000000   Number         0  entry7b.o ABSOLUTE
    ../clib/microlib/longlong.c              0x00000000   Number         0  llsshr.o ABSOLUTE
    ../clib/microlib/longlong.c              0x00000000   Number         0  llushr.o ABSOLUTE
    ../clib/microlib/longlong.c              0x00000000   Number         0  llshl.o ABSOLUTE
    ../clib/microlib/printf/printf.c         0x00000000   Number         0  printf4.o ABSOLUTE
    ../clib/microlib/printf/printf.c         0x00000000   Number         0  printf3.o ABSOLUTE
    ../clib/microlib/printf/printf.c         0x00000000   Number         0  printf2.o ABSOLUTE
    ../clib/microlib/printf/printf.c         0x00000000   Number         0  printf1.o ABSOLUTE
    ../clib/microlib/printf/printf.c         0x00000000   Number         0  printf0.o ABSOLUTE
    ../clib/microlib/printf/printf.c         0x00000000   Number         0  printfb.o ABSOLUTE
    ../clib/microlib/printf/printf.c         0x00000000   Number         0  printf5.o ABSOLUTE
    ../clib/microlib/printf/printf.c         0x00000000   Number         0  printfa.o ABSOLUTE
    ../clib/microlib/printf/printf.c         0x00000000   Number         0  printf8.o ABSOLUTE
    ../clib/microlib/printf/printf.c         0x00000000   Number         0  printf7.o ABSOLUTE
    ../clib/microlib/printf/printf.c         0x00000000   Number         0  printf6.o ABSOLUTE
    ../clib/microlib/printf/stubs.s          0x00000000   Number         0  stubs.o ABSOLUTE
    ../clib/microlib/stdio/fputc.c           0x00000000   Number         0  fputc.o ABSOLUTE
    ../clib/microlib/stdio/semi.s            0x00000000   Number         0  semi.o ABSOLUTE
    ../clib/microlib/stdio/streams.c         0x00000000   Number         0  stdout.o ABSOLUTE
    ../clib/microlib/string/memcpy.c         0x00000000   Number         0  memcpyb.o ABSOLUTE
    ../clib/microlib/string/memcpy.c         0x00000000   Number         0  memcpya.o ABSOLUTE
    ../clib/microlib/stubs.s                 0x00000000   Number         0  iusesemip.o ABSOLUTE
    ../clib/microlib/stubs.s                 0x00000000   Number         0  iusefp.o ABSOLUTE
    ../fplib/microlib/f2d.c                  0x00000000   Number         0  f2d.o ABSOLUTE
    ../fplib/microlib/fpadd.c                0x00000000   Number         0  dadd.o ABSOLUTE
    ../fplib/microlib/fpdiv.c                0x00000000   Number         0  ddiv.o ABSOLUTE
    ../fplib/microlib/fpepilogue.c           0x00000000   Number         0  depilogue.o ABSOLUTE
    ../fplib/microlib/fpfix.c                0x00000000   Number         0  dfixul.o ABSOLUTE
    ../fplib/microlib/fpmul.c                0x00000000   Number         0  dmul.o ABSOLUTE
    ..\..\..\dmc.c                           0x00000000   Number         0  dmc.o ABSOLUTE
    ..\..\..\matrix.c                        0x00000000   Number         0  matrix.o ABSOLUTE
    ..\..\..\pid.c                           0x00000000   Number         0  pid.o ABSOLUTE
    ..\Drivers\BSP\STM32746G-Discovery\stm32746g_discovery.c 0x00000000   Number         0  stm32746g_discovery.o ABSOLUTE
    ..\Drivers\BSP\STM32746G-Discovery\stm32746g_discovery_lcd.c 0x00000000   Number         0  stm32746g_discovery_lcd.o ABSOLUTE
    ..\Drivers\BSP\STM32746G-Discovery\stm32746g_discovery_sdram.c 0x00000000   Number         0  stm32746g_discovery_sdram.o ABSOLUTE
    ..\Drivers\CMSIS\\Device\ST\STM32F7xx\Source\Templates\system_stm32f7xx.c 0x00000000   Number         0  system_stm32f7xx.o ABSOLUTE
    ..\Drivers\STM32F7xx_HAL_Driver\Src\stm32f7xx_hal.c 0x00000000   Number         0  stm32f7xx_hal.o ABSOLUTE
    ..\Drivers\STM32F7xx_HAL_Driver\Src\stm32f7xx_hal_adc.c 0x00000000   Number         0  stm32f7xx_hal_adc.o ABSOLUTE
    ..\Drivers\STM32F7xx_HAL_Driver\Src\stm32f7xx_hal_adc_ex.c 0x00000000   Number         0  stm32f7xx_hal_adc_ex.o ABSOLUTE
    ..\Drivers\STM32F7xx_HAL_Driver\Src\stm32f7xx_hal_cortex.c 0x00000000   Number         0  stm32f7xx_hal_cortex.o ABSOLUTE
    ..\Drivers\STM32F7xx_HAL_Driver\Src\stm32f7xx_hal_dma.c 0x00000000   Number         0  stm32f7xx_hal_dma.o ABSOLUTE
    ..\Drivers\STM32F7xx_HAL_Driver\Src\stm32f7xx_hal_dma2d.c 0x00000000   Number         0  stm32f7xx_hal_dma2d.o ABSOLUTE
    ..\Drivers\STM32F7xx_HAL_Driver\Src\stm32f7xx_hal_dma_ex.c 0x00000000   Number         0  stm32f7xx_hal_dma_ex.o ABSOLUTE
    ..\Drivers\STM32F7xx_HAL_Driver\Src\stm32f7xx_hal_dsi.c 0x00000000   Number         0  stm32f7xx_hal_dsi.o ABSOLUTE
    ..\Drivers\STM32F7xx_HAL_Driver\Src\stm32f7xx_hal_flash.c 0x00000000   Number         0  stm32f7xx_hal_flash.o ABSOLUTE
    ..\Drivers\STM32F7xx_HAL_Driver\Src\stm32f7xx_hal_flash_ex.c 0x00000000   Number         0  stm32f7xx_hal_flash_ex.o ABSOLUTE
    ..\Drivers\STM32F7xx_HAL_Driver\Src\stm32f7xx_hal_gpio.c 0x00000000   Number         0  stm32f7xx_hal_gpio.o ABSOLUTE
    ..\Drivers\STM32F7xx_HAL_Driver\Src\stm32f7xx_hal_i2c.c 0x00000000   Number         0  stm32f7xx_hal_i2c.o ABSOLUTE
    ..\Drivers\STM32F7xx_HAL_Driver\Src\stm32f7xx_hal_i2c_ex.c 0x00000000   Number         0  stm32f7xx_hal_i2c_ex.o ABSOLUTE
    ..\Drivers\STM32F7xx_HAL_Driver\Src\stm32f7xx_hal_ltdc.c 0x00000000   Number         0  stm32f7xx_hal_ltdc.o ABSOLUTE
    ..\Drivers\STM32F7xx_HAL_Driver\Src\stm32f7xx_hal_ltdc_ex.c 0x00000000   Number         0  stm32f7xx_hal_ltdc_ex.o ABSOLUTE
    ..\Drivers\STM32F7xx_HAL_Driver\Src\stm32f7xx_hal_pwr.c 0x00000000   Number         0  stm32f7xx_hal_pwr.o ABSOLUTE
    ..\Drivers\STM32F7xx_HAL_Driver\Src\stm32f7xx_hal_pwr_ex.c 0x00000000   Number         0  stm32f7xx_hal_pwr_ex.o ABSOLUTE
    ..\Drivers\STM32F7xx_HAL_Driver\Src\stm32f7xx_hal_rcc.c 0x00000000   Number         0  stm32f7xx_hal_rcc.o ABSOLUTE
    ..\Drivers\STM32F7xx_HAL_Driver\Src\stm32f7xx_hal_rcc_ex.c 0x00000000   Number         0  stm32f7xx_hal_rcc_ex.o ABSOLUTE
    ..\Drivers\STM32F7xx_HAL_Driver\Src\stm32f7xx_hal_sdram.c 0x00000000   Number         0  stm32f7xx_hal_sdram.o ABSOLUTE
    ..\Drivers\STM32F7xx_HAL_Driver\Src\stm32f7xx_hal_tim.c 0x00000000   Number         0  stm32f7xx_hal_tim.o ABSOLUTE
    ..\Drivers\STM32F7xx_HAL_Driver\Src\stm32f7xx_hal_tim_ex.c 0x00000000   Number         0  stm32f7xx_hal_tim_ex.o ABSOLUTE
    ..\Drivers\STM32F7xx_HAL_Driver\Src\stm32f7xx_hal_uart.c 0x00000000   Number         0  stm32f7xx_hal_uart.o ABSOLUTE
    ..\Drivers\STM32F7xx_HAL_Driver\Src\stm32f7xx_ll_fmc.c 0x00000000   Number         0  stm32f7xx_ll_fmc.o ABSOLUTE
    ..\Libraries\matrix_lib\mat_lib.c        0x00000000   Number         0  mat_lib.o ABSOLUTE
    ..\Src\main.c                            0x00000000   Number         0  main.o ABSOLUTE
    ..\Src\stm32f7xx_hal_msp.c               0x00000000   Number         0  stm32f7xx_hal_msp.o ABSOLUTE
    ..\Src\stm32f7xx_it.c                    0x00000000   Number         0  stm32f7xx_it.o ABSOLUTE
    ..\\Drivers\\BSP\\STM32746G-Discovery\\stm32746g_discovery.c 0x00000000   Number         0  stm32746g_discovery.o ABSOLUTE
    ..\\Drivers\\BSP\\STM32746G-Discovery\\stm32746g_discovery_lcd.c 0x00000000   Number         0  stm32746g_discovery_lcd.o ABSOLUTE
    ..\\Drivers\\BSP\\STM32746G-Discovery\\stm32746g_discovery_sdram.c 0x00000000   Number         0  stm32746g_discovery_sdram.o ABSOLUTE
    ..\\Drivers\\STM32F7xx_HAL_Driver\\Src\\stm32f7xx_hal_dma2d.c 0x00000000   Number         0  stm32f7xx_hal_dma2d.o ABSOLUTE
    ..\\Drivers\\STM32F7xx_HAL_Driver\\Src\\stm32f7xx_hal_sdram.c 0x00000000   Number         0  stm32f7xx_hal_sdram.o ABSOLUTE
    ..\\Drivers\\STM32F7xx_HAL_Driver\\Src\\stm32f7xx_hal_uart.c 0x00000000   Number         0  stm32f7xx_hal_uart.o ABSOLUTE
    ..\\Drivers\\STM32F7xx_HAL_Driver\\Src\\stm32f7xx_ll_fmc.c 0x00000000   Number         0  stm32f7xx_ll_fmc.o ABSOLUTE
    cdrcmple.s                               0x00000000   Number         0  cdrcmple.o ABSOLUTE
    dc.s                                     0x00000000   Number         0  dc.o ABSOLUTE
    handlers.s                               0x00000000   Number         0  handlers.o ABSOLUTE
    init.s                                   0x00000000   Number         0  init.o ABSOLUTE
    startup_stm32f746xx.s                    0x00000000   Number         0  startup_stm32f746xx.o ABSOLUTE
    RESET                                    0x08000000   Section      456  startup_stm32f746xx.o(RESET)
    .ARM.Collect$$$$00000000                 0x080001c8   Section        0  entry.o(.ARM.Collect$$$$00000000)
    .ARM.Collect$$$$00000001                 0x080001c8   Section        4  entry2.o(.ARM.Collect$$$$00000001)
    .ARM.Collect$$$$00000004                 0x080001cc   Section        4  entry5.o(.ARM.Collect$$$$00000004)
    .ARM.Collect$$$$00000008                 0x080001d0   Section        0  entry7b.o(.ARM.Collect$$$$00000008)
    .ARM.Collect$$$$0000000A                 0x080001d0   Section        0  entry8b.o(.ARM.Collect$$$$0000000A)
    .ARM.Collect$$$$0000000B                 0x080001d0   Section        8  entry9a.o(.ARM.Collect$$$$0000000B)
    .ARM.Collect$$$$0000000D                 0x080001d8   Section        0  entry10a.o(.ARM.Collect$$$$0000000D)
    .ARM.Collect$$$$0000000F                 0x080001d8   Section        0  entry11a.o(.ARM.Collect$$$$0000000F)
    .ARM.Collect$$$$00002712                 0x080001d8   Section        4  entry2.o(.ARM.Collect$$$$00002712)
    __lit__00000000                          0x080001d8   Data           4  entry2.o(.ARM.Collect$$$$00002712)
    .text                                    0x080001dc   Section       36  startup_stm32f746xx.o(.text)
    $v0                                      0x080001dc   Number         0  startup_stm32f746xx.o(.text)
    .text                                    0x08000200   Section        0  memcpya.o(.text)
    .text                                    0x08000224   Section        0  uidiv.o(.text)
    .text                                    0x08000250   Section        0  uldiv.o(.text)
    .text                                    0x080002b2   Section        0  dadd.o(.text)
    .text                                    0x080002b2   Section        0  iusefp.o(.text)
    .text                                    0x08000400   Section        0  dmul.o(.text)
    .text                                    0x080004e4   Section        0  ddiv.o(.text)
    .text                                    0x080005c2   Section        0  dfixul.o(.text)
    .text                                    0x080005f4   Section       48  cdrcmple.o(.text)
    .text                                    0x08000624   Section       36  init.o(.text)
    .text                                    0x08000648   Section        0  llshl.o(.text)
    .text                                    0x08000666   Section        0  llushr.o(.text)
    .text                                    0x08000686   Section        0  llsshr.o(.text)
    .text                                    0x080006aa   Section        0  depilogue.o(.text)
    .text                                    0x08000764   Section        0  __dclz77c.o(.text)
    i.ADC_DMAConvCplt                        0x080007c2   Section        0  stm32f7xx_hal_adc.o(i.ADC_DMAConvCplt)
    ADC_DMAConvCplt                          0x080007c3   Thumb Code   110  stm32f7xx_hal_adc.o(i.ADC_DMAConvCplt)
    i.ADC_DMAError                           0x08000830   Section        0  stm32f7xx_hal_adc.o(i.ADC_DMAError)
    ADC_DMAError                             0x08000831   Thumb Code    26  stm32f7xx_hal_adc.o(i.ADC_DMAError)
    i.ADC_DMAHalfConvCplt                    0x0800084a   Section        0  stm32f7xx_hal_adc.o(i.ADC_DMAHalfConvCplt)
    ADC_DMAHalfConvCplt                      0x0800084b   Thumb Code    14  stm32f7xx_hal_adc.o(i.ADC_DMAHalfConvCplt)
    i.ADC_Init                               0x08000858   Section        0  stm32f7xx_hal_adc.o(i.ADC_Init)
    ADC_Init                                 0x08000859   Thumb Code   362  stm32f7xx_hal_adc.o(i.ADC_Init)
    i.BSP_LCD_Clear                          0x080009d0   Section        0  stm32746g_discovery_lcd.o(i.BSP_LCD_Clear)
    i.BSP_LCD_ClockConfig                    0x08000a10   Section        0  stm32746g_discovery_lcd.o(i.BSP_LCD_ClockConfig)
    i.BSP_LCD_DisplayOn                      0x08000a3c   Section        0  stm32746g_discovery_lcd.o(i.BSP_LCD_DisplayOn)
    i.BSP_LCD_GetXSize                       0x08000a70   Section        0  stm32746g_discovery_lcd.o(i.BSP_LCD_GetXSize)
    i.BSP_LCD_GetYSize                       0x08000a90   Section        0  stm32746g_discovery_lcd.o(i.BSP_LCD_GetYSize)
    i.BSP_LCD_Init                           0x08000ab0   Section        0  stm32746g_discovery_lcd.o(i.BSP_LCD_Init)
    i.BSP_LCD_LayerDefaultInit               0x08000b60   Section        0  stm32746g_discovery_lcd.o(i.BSP_LCD_LayerDefaultInit)
    i.BSP_LCD_MspInit                        0x08000bf0   Section        0  stm32746g_discovery_lcd.o(i.BSP_LCD_MspInit)
    i.BSP_LCD_SelectLayer                    0x08000d9c   Section        0  stm32746g_discovery_lcd.o(i.BSP_LCD_SelectLayer)
    i.BSP_LCD_SetFont                        0x08000da8   Section        0  stm32746g_discovery_lcd.o(i.BSP_LCD_SetFont)
    i.BSP_LCD_SetTransparency                0x08000dc4   Section        0  stm32746g_discovery_lcd.o(i.BSP_LCD_SetTransparency)
    i.BSP_LED_Init                           0x08000ddc   Section        0  stm32746g_discovery.o(i.BSP_LED_Init)
    i.BSP_LED_On                             0x08000e3c   Section        0  stm32746g_discovery.o(i.BSP_LED_On)
    i.BSP_PB_Init                            0x08000e60   Section        0  stm32746g_discovery.o(i.BSP_PB_Init)
    i.BSP_SDRAM_Init                         0x08000f4c   Section        0  stm32746g_discovery_sdram.o(i.BSP_SDRAM_Init)
    i.BSP_SDRAM_Initialization_sequence      0x08000fd8   Section        0  stm32746g_discovery_sdram.o(i.BSP_SDRAM_Initialization_sequence)
    i.BSP_SDRAM_MspInit                      0x08001070   Section        0  stm32746g_discovery_sdram.o(i.BSP_SDRAM_MspInit)
    i.DMA1_Stream6_IRQHandler                0x08001238   Section        0  stm32f7xx_it.o(i.DMA1_Stream6_IRQHandler)
    i.DMA2D_SetConfig                        0x08001248   Section        0  stm32f7xx_hal_dma2d.o(i.DMA2D_SetConfig)
    DMA2D_SetConfig                          0x08001249   Thumb Code   258  stm32f7xx_hal_dma2d.o(i.DMA2D_SetConfig)
    i.DMA2_Stream0_IRQHandler                0x08001350   Section        0  stm32f7xx_it.o(i.DMA2_Stream0_IRQHandler)
    i.DMA_CalcBaseAndBitshift                0x08001360   Section        0  stm32f7xx_hal_dma.o(i.DMA_CalcBaseAndBitshift)
    DMA_CalcBaseAndBitshift                  0x08001361   Thumb Code    46  stm32f7xx_hal_dma.o(i.DMA_CalcBaseAndBitshift)
    i.DMA_CheckFifoParam                     0x08001394   Section        0  stm32f7xx_hal_dma.o(i.DMA_CheckFifoParam)
    DMA_CheckFifoParam                       0x08001395   Thumb Code   186  stm32f7xx_hal_dma.o(i.DMA_CheckFifoParam)
    i.DMA_SetConfig                          0x0800144e   Section        0  stm32f7xx_hal_dma.o(i.DMA_SetConfig)
    DMA_SetConfig                            0x0800144f   Thumb Code    44  stm32f7xx_hal_dma.o(i.DMA_SetConfig)
    i.EXTI15_10_IRQHandler                   0x0800147a   Section        0  stm32f7xx_it.o(i.EXTI15_10_IRQHandler)
    i.Error_Handler                          0x08001486   Section        0  main.o(i.Error_Handler)
    i.FMC_SDRAM_Init                         0x0800148a   Section        0  stm32f7xx_ll_fmc.o(i.FMC_SDRAM_Init)
    i.FMC_SDRAM_ProgramRefreshRate           0x080014fe   Section        0  stm32f7xx_ll_fmc.o(i.FMC_SDRAM_ProgramRefreshRate)
    i.FMC_SDRAM_SendCommand                  0x0800150c   Section        0  stm32f7xx_ll_fmc.o(i.FMC_SDRAM_SendCommand)
    i.FMC_SDRAM_Timing_Init                  0x08001560   Section        0  stm32f7xx_ll_fmc.o(i.FMC_SDRAM_Timing_Init)
    i.HAL_ADC_ConfigChannel                  0x080015fc   Section        0  stm32f7xx_hal_adc.o(i.HAL_ADC_ConfigChannel)
    i.HAL_ADC_ConvCpltCallback               0x080017b0   Section        0  main.o(i.HAL_ADC_ConvCpltCallback)
    i.HAL_ADC_ConvHalfCpltCallback           0x08001808   Section        0  stm32f7xx_hal_adc.o(i.HAL_ADC_ConvHalfCpltCallback)
    i.HAL_ADC_ErrorCallback                  0x0800180a   Section        0  stm32f7xx_hal_adc.o(i.HAL_ADC_ErrorCallback)
    i.HAL_ADC_Init                           0x0800180c   Section        0  stm32f7xx_hal_adc.o(i.HAL_ADC_Init)
    i.HAL_ADC_MspInit                        0x08001874   Section        0  stm32f7xx_hal_msp.o(i.HAL_ADC_MspInit)
    i.HAL_ADC_Start                          0x08001960   Section        0  stm32f7xx_hal_adc.o(i.HAL_ADC_Start)
    i.HAL_ADC_Start_DMA                      0x08001a60   Section        0  stm32f7xx_hal_adc.o(i.HAL_ADC_Start_DMA)
    i.HAL_DMA2D_ConfigLayer                  0x08001ba8   Section        0  stm32f7xx_hal_dma2d.o(i.HAL_DMA2D_ConfigLayer)
    i.HAL_DMA2D_Init                         0x08001c90   Section        0  stm32f7xx_hal_dma2d.o(i.HAL_DMA2D_Init)
    i.HAL_DMA2D_MspInit                      0x08001cf0   Section        0  stm32f7xx_hal_dma2d.o(i.HAL_DMA2D_MspInit)
    i.HAL_DMA2D_PollForTransfer              0x08001cf2   Section        0  stm32f7xx_hal_dma2d.o(i.HAL_DMA2D_PollForTransfer)
    i.HAL_DMA2D_Start                        0x08001e5a   Section        0  stm32f7xx_hal_dma2d.o(i.HAL_DMA2D_Start)
    i.HAL_DMA_Abort_IT                       0x08001ea8   Section        0  stm32f7xx_hal_dma.o(i.HAL_DMA_Abort_IT)
    i.HAL_DMA_DeInit                         0x08001ed0   Section        0  stm32f7xx_hal_dma.o(i.HAL_DMA_DeInit)
    i.HAL_DMA_IRQHandler                     0x08001f34   Section        0  stm32f7xx_hal_dma.o(i.HAL_DMA_IRQHandler)
    i.HAL_DMA_Init                           0x0800217c   Section        0  stm32f7xx_hal_dma.o(i.HAL_DMA_Init)
    i.HAL_DMA_Start_IT                       0x08002264   Section        0  stm32f7xx_hal_dma.o(i.HAL_DMA_Start_IT)
    i.HAL_Delay                              0x08002302   Section        0  stm32f7xx_hal.o(i.HAL_Delay)
    i.HAL_GPIO_DeInit                        0x0800231c   Section        0  stm32f7xx_hal_gpio.o(i.HAL_GPIO_DeInit)
    i.HAL_GPIO_EXTI_Callback                 0x0800249c   Section        0  main.o(i.HAL_GPIO_EXTI_Callback)
    i.HAL_GPIO_EXTI_IRQHandler               0x080024a0   Section        0  stm32f7xx_hal_gpio.o(i.HAL_GPIO_EXTI_IRQHandler)
    i.HAL_GPIO_Init                          0x080024bc   Section        0  stm32f7xx_hal_gpio.o(i.HAL_GPIO_Init)
    i.HAL_GPIO_WritePin                      0x080026d4   Section        0  stm32f7xx_hal_gpio.o(i.HAL_GPIO_WritePin)
    i.HAL_GetTick                            0x080026e0   Section        0  stm32f7xx_hal.o(i.HAL_GetTick)
    i.HAL_I2C_Init                           0x080026ec   Section        0  stm32f7xx_hal_i2c.o(i.HAL_I2C_Init)
    i.HAL_I2C_Master_Transmit                0x080027a8   Section        0  stm32f7xx_hal_i2c.o(i.HAL_I2C_Master_Transmit)
    i.HAL_I2C_MspInit                        0x0800291c   Section        0  stm32f7xx_hal_msp.o(i.HAL_I2C_MspInit)
    i.HAL_IncTick                            0x080029c0   Section        0  stm32f7xx_hal.o(i.HAL_IncTick)
    i.HAL_Init                               0x080029d0   Section        0  stm32f7xx_hal.o(i.HAL_Init)
    i.HAL_InitTick                           0x080029e8   Section        0  stm32f7xx_hal.o(i.HAL_InitTick)
    i.HAL_LTDC_ConfigLayer                   0x08002a10   Section        0  stm32f7xx_hal_ltdc.o(i.HAL_LTDC_ConfigLayer)
    i.HAL_LTDC_GetState                      0x08002a6e   Section        0  stm32f7xx_hal_ltdc.o(i.HAL_LTDC_GetState)
    i.HAL_LTDC_Init                          0x08002a78   Section        0  stm32f7xx_hal_ltdc.o(i.HAL_LTDC_Init)
    i.HAL_LTDC_MspInit                       0x08002ba0   Section        0  stm32f7xx_hal_msp.o(i.HAL_LTDC_MspInit)
    i.HAL_LTDC_SetAlpha                      0x08002c74   Section        0  stm32f7xx_hal_ltdc.o(i.HAL_LTDC_SetAlpha)
    i.HAL_MspInit                            0x08002cd0   Section        0  stm32f7xx_hal_msp.o(i.HAL_MspInit)
    i.HAL_NVIC_EnableIRQ                     0x08002d26   Section        0  stm32f7xx_hal_cortex.o(i.HAL_NVIC_EnableIRQ)
    i.HAL_NVIC_SetPriority                   0x08002d40   Section        0  stm32f7xx_hal_cortex.o(i.HAL_NVIC_SetPriority)
    i.HAL_NVIC_SetPriorityGrouping           0x08002dbc   Section        0  stm32f7xx_hal_cortex.o(i.HAL_NVIC_SetPriorityGrouping)
    i.HAL_RCCEx_PeriphCLKConfig              0x08002de4   Section        0  stm32f7xx_hal_rcc_ex.o(i.HAL_RCCEx_PeriphCLKConfig)
    i.HAL_RCC_ClockConfig                    0x080036fc   Section        0  stm32f7xx_hal_rcc.o(i.HAL_RCC_ClockConfig)
    i.HAL_RCC_GetHCLKFreq                    0x080038b0   Section        0  stm32f7xx_hal_rcc.o(i.HAL_RCC_GetHCLKFreq)
    i.HAL_RCC_GetPCLK1Freq                   0x080038bc   Section        0  stm32f7xx_hal_rcc.o(i.HAL_RCC_GetPCLK1Freq)
    i.HAL_RCC_GetPCLK2Freq                   0x080038e8   Section        0  stm32f7xx_hal_rcc.o(i.HAL_RCC_GetPCLK2Freq)
    i.HAL_RCC_GetSysClockFreq                0x08003914   Section        0  stm32f7xx_hal_rcc.o(i.HAL_RCC_GetSysClockFreq)
    i.HAL_RCC_OscConfig                      0x080039c8   Section        0  stm32f7xx_hal_rcc.o(i.HAL_RCC_OscConfig)
    i.HAL_SDRAM_Init                         0x08003e88   Section        0  stm32f7xx_hal_sdram.o(i.HAL_SDRAM_Init)
    i.HAL_SDRAM_MspInit                      0x08003ec8   Section        0  stm32f7xx_hal_sdram.o(i.HAL_SDRAM_MspInit)
    i.HAL_SDRAM_ProgramRefreshRate           0x08003eca   Section        0  stm32f7xx_hal_sdram.o(i.HAL_SDRAM_ProgramRefreshRate)
    i.HAL_SDRAM_SendCommand                  0x08003ef2   Section        0  stm32f7xx_hal_sdram.o(i.HAL_SDRAM_SendCommand)
    i.HAL_SYSTICK_CLKSourceConfig            0x08003f2c   Section        0  stm32f7xx_hal_cortex.o(i.HAL_SYSTICK_CLKSourceConfig)
    i.HAL_SYSTICK_Callback                   0x08003f54   Section        0  stm32f7xx_hal_cortex.o(i.HAL_SYSTICK_Callback)
    i.HAL_SYSTICK_Config                     0x08003f56   Section        0  stm32f7xx_hal_cortex.o(i.HAL_SYSTICK_Config)
    i.HAL_SYSTICK_IRQHandler                 0x08003f8a   Section        0  stm32f7xx_hal_cortex.o(i.HAL_SYSTICK_IRQHandler)
    i.HAL_TIMEx_BreakCallback                0x08003f92   Section        0  stm32f7xx_hal_tim_ex.o(i.HAL_TIMEx_BreakCallback)
    i.HAL_TIMEx_CommutationCallback          0x08003f94   Section        0  stm32f7xx_hal_tim_ex.o(i.HAL_TIMEx_CommutationCallback)
    i.HAL_TIMEx_MasterConfigSynchronization  0x08003f98   Section        0  stm32f7xx_hal_tim_ex.o(i.HAL_TIMEx_MasterConfigSynchronization)
    i.HAL_TIM_Base_Init                      0x08004004   Section        0  stm32f7xx_hal_tim.o(i.HAL_TIM_Base_Init)
    i.HAL_TIM_Base_MspInit                   0x08004034   Section        0  stm32f7xx_hal_msp.o(i.HAL_TIM_Base_MspInit)
    i.HAL_TIM_Base_Start_IT                  0x080040d8   Section        0  stm32f7xx_hal_tim.o(i.HAL_TIM_Base_Start_IT)
    i.HAL_TIM_ConfigClockSource              0x080040f8   Section        0  stm32f7xx_hal_tim.o(i.HAL_TIM_ConfigClockSource)
    i.HAL_TIM_IC_CaptureCallback             0x08004230   Section        0  stm32f7xx_hal_tim.o(i.HAL_TIM_IC_CaptureCallback)
    i.HAL_TIM_IRQHandler                     0x08004232   Section        0  stm32f7xx_hal_tim.o(i.HAL_TIM_IRQHandler)
    i.HAL_TIM_OC_DelayElapsedCallback        0x080043ea   Section        0  stm32f7xx_hal_tim.o(i.HAL_TIM_OC_DelayElapsedCallback)
    i.HAL_TIM_PWM_PulseFinishedCallback      0x080043ec   Section        0  stm32f7xx_hal_tim.o(i.HAL_TIM_PWM_PulseFinishedCallback)
    i.HAL_TIM_PeriodElapsedCallback          0x080043f0   Section        0  main.o(i.HAL_TIM_PeriodElapsedCallback)
    i.HAL_TIM_TriggerCallback                0x08004584   Section        0  stm32f7xx_hal_tim.o(i.HAL_TIM_TriggerCallback)
    i.HAL_UART_DeInit                        0x08004586   Section        0  stm32f7xx_hal_uart.o(i.HAL_UART_DeInit)
    i.HAL_UART_ErrorCallback                 0x080045ce   Section        0  stm32f7xx_hal_uart.o(i.HAL_UART_ErrorCallback)
    i.HAL_UART_GetState                      0x080045d0   Section        0  stm32f7xx_hal_uart.o(i.HAL_UART_GetState)
    i.HAL_UART_IRQHandler                    0x080045e4   Section        0  stm32f7xx_hal_uart.o(i.HAL_UART_IRQHandler)
    i.HAL_UART_Init                          0x08004740   Section        0  stm32f7xx_hal_uart.o(i.HAL_UART_Init)
    i.HAL_UART_MspDeInit                     0x080047b8   Section        0  stm32f7xx_hal_msp.o(i.HAL_UART_MspDeInit)
    i.HAL_UART_MspInit                       0x080047f0   Section        0  stm32f7xx_hal_msp.o(i.HAL_UART_MspInit)
    i.HAL_UART_RxCpltCallback                0x08004888   Section        0  stm32f7xx_hal_uart.o(i.HAL_UART_RxCpltCallback)
    i.HAL_UART_Transmit_IT                   0x0800488a   Section        0  stm32f7xx_hal_uart.o(i.HAL_UART_Transmit_IT)
    i.HAL_UART_TxCpltCallback                0x080048e4   Section        0  stm32f7xx_hal_uart.o(i.HAL_UART_TxCpltCallback)
    i.I2C_Flush_TXDR                         0x080048e6   Section        0  stm32f7xx_hal_i2c.o(i.I2C_Flush_TXDR)
    I2C_Flush_TXDR                           0x080048e7   Thumb Code    40  stm32f7xx_hal_i2c.o(i.I2C_Flush_TXDR)
    i.I2C_IsAcknowledgeFailed                0x08004910   Section        0  stm32f7xx_hal_i2c.o(i.I2C_IsAcknowledgeFailed)
    I2C_IsAcknowledgeFailed                  0x08004911   Thumb Code   136  stm32f7xx_hal_i2c.o(i.I2C_IsAcknowledgeFailed)
    i.I2C_TransferConfig                     0x0800499c   Section        0  stm32f7xx_hal_i2c.o(i.I2C_TransferConfig)
    I2C_TransferConfig                       0x0800499d   Thumb Code    42  stm32f7xx_hal_i2c.o(i.I2C_TransferConfig)
    i.I2C_WaitOnFlagUntilTimeout             0x080049cc   Section        0  stm32f7xx_hal_i2c.o(i.I2C_WaitOnFlagUntilTimeout)
    I2C_WaitOnFlagUntilTimeout               0x080049cd   Thumb Code    86  stm32f7xx_hal_i2c.o(i.I2C_WaitOnFlagUntilTimeout)
    i.I2C_WaitOnSTOPFlagUntilTimeout         0x08004a22   Section        0  stm32f7xx_hal_i2c.o(i.I2C_WaitOnSTOPFlagUntilTimeout)
    I2C_WaitOnSTOPFlagUntilTimeout           0x08004a23   Thumb Code    86  stm32f7xx_hal_i2c.o(i.I2C_WaitOnSTOPFlagUntilTimeout)
    i.I2C_WaitOnTXISFlagUntilTimeout         0x08004a78   Section        0  stm32f7xx_hal_i2c.o(i.I2C_WaitOnTXISFlagUntilTimeout)
    I2C_WaitOnTXISFlagUntilTimeout           0x08004a79   Thumb Code    90  stm32f7xx_hal_i2c.o(i.I2C_WaitOnTXISFlagUntilTimeout)
    i.LCD_Config                             0x08004ad2   Section        0  main.o(i.LCD_Config)
    LCD_Config                               0x08004ad3   Thumb Code    72  main.o(i.LCD_Config)
    i.LL_FillBuffer                          0x08004b1c   Section        0  stm32746g_discovery_lcd.o(i.LL_FillBuffer)
    LL_FillBuffer                            0x08004b1d   Thumb Code   120  stm32746g_discovery_lcd.o(i.LL_FillBuffer)
    i.LTDC_SetConfig                         0x08004ba4   Section        0  stm32f7xx_hal_ltdc.o(i.LTDC_SetConfig)
    LTDC_SetConfig                           0x08004ba5   Thumb Code   530  stm32f7xx_hal_ltdc.o(i.LTDC_SetConfig)
    i.MX_ADC3_Init                           0x08004db8   Section        0  main.o(i.MX_ADC3_Init)
    MX_ADC3_Init                             0x08004db9   Thumb Code    82  main.o(i.MX_ADC3_Init)
    i.MX_DMA_Init                            0x08004e14   Section        0  main.o(i.MX_DMA_Init)
    MX_DMA_Init                              0x08004e15   Thumb Code    48  main.o(i.MX_DMA_Init)
    i.MX_GPIO_Init                           0x08004e48   Section        0  main.o(i.MX_GPIO_Init)
    MX_GPIO_Init                             0x08004e49   Thumb Code  1752  main.o(i.MX_GPIO_Init)
    i.MX_I2C1_Init                           0x08005544   Section        0  main.o(i.MX_I2C1_Init)
    MX_I2C1_Init                             0x08005545   Thumb Code    46  main.o(i.MX_I2C1_Init)
    i.MX_LTDC_Init                           0x08005580   Section        0  main.o(i.MX_LTDC_Init)
    MX_LTDC_Init                             0x08005581   Thumb Code   160  main.o(i.MX_LTDC_Init)
    i.MX_TIM2_Init                           0x08005628   Section        0  main.o(i.MX_TIM2_Init)
    MX_TIM2_Init                             0x08005629   Thumb Code   116  main.o(i.MX_TIM2_Init)
    i.MX_TIM3_Init                           0x080056a0   Section        0  main.o(i.MX_TIM3_Init)
    MX_TIM3_Init                             0x080056a1   Thumb Code   112  main.o(i.MX_TIM3_Init)
    i.MX_TIM4_Init                           0x08005718   Section        0  main.o(i.MX_TIM4_Init)
    MX_TIM4_Init                             0x08005719   Thumb Code   114  main.o(i.MX_TIM4_Init)
    i.MX_TIM5_Init                           0x08005794   Section        0  main.o(i.MX_TIM5_Init)
    MX_TIM5_Init                             0x08005795   Thumb Code   114  main.o(i.MX_TIM5_Init)
    i.MX_UART_Init                           0x08005810   Section        0  main.o(i.MX_UART_Init)
    MX_UART_Init                             0x08005811   Thumb Code    62  main.o(i.MX_UART_Init)
    i.NVIC_GetPriorityGrouping               0x08005858   Section        0  stm32f7xx_hal_cortex.o(i.NVIC_GetPriorityGrouping)
    NVIC_GetPriorityGrouping                 0x08005859   Thumb Code    10  stm32f7xx_hal_cortex.o(i.NVIC_GetPriorityGrouping)
    i.NVIC_SetPriority                       0x08005868   Section        0  stm32f7xx_hal_cortex.o(i.NVIC_SetPriority)
    NVIC_SetPriority                         0x08005869   Thumb Code    32  stm32f7xx_hal_cortex.o(i.NVIC_SetPriority)
    i.SysTick_Handler                        0x08005890   Section        0  stm32f7xx_it.o(i.SysTick_Handler)
    i.SystemClock_Config                     0x0800589c   Section        0  main.o(i.SystemClock_Config)
    i.SystemInit                             0x08005948   Section        0  system_stm32f7xx.o(i.SystemInit)
    i.TIM2_IRQHandler                        0x080059ac   Section        0  stm32f7xx_it.o(i.TIM2_IRQHandler)
    i.TIM3_IRQHandler                        0x080059bc   Section        0  stm32f7xx_it.o(i.TIM3_IRQHandler)
    i.TIM4_IRQHandler                        0x080059cc   Section        0  stm32f7xx_it.o(i.TIM4_IRQHandler)
    i.TIM5_IRQHandler                        0x080059dc   Section        0  stm32f7xx_it.o(i.TIM5_IRQHandler)
    i.TIM_Base_SetConfig                     0x080059ec   Section        0  stm32f7xx_hal_tim.o(i.TIM_Base_SetConfig)
    i.TIM_ETR_SetConfig                      0x08005ad0   Section        0  stm32f7xx_hal_tim.o(i.TIM_ETR_SetConfig)
    i.TIM_ITRx_SetConfig                     0x08005ae8   Section        0  stm32f7xx_hal_tim.o(i.TIM_ITRx_SetConfig)
    TIM_ITRx_SetConfig                       0x08005ae9   Thumb Code    20  stm32f7xx_hal_tim.o(i.TIM_ITRx_SetConfig)
    i.TIM_TI1_ConfigInputStage               0x08005afc   Section        0  stm32f7xx_hal_tim.o(i.TIM_TI1_ConfigInputStage)
    TIM_TI1_ConfigInputStage                 0x08005afd   Thumb Code    42  stm32f7xx_hal_tim.o(i.TIM_TI1_ConfigInputStage)
    i.TIM_TI2_ConfigInputStage               0x08005b26   Section        0  stm32f7xx_hal_tim.o(i.TIM_TI2_ConfigInputStage)
    TIM_TI2_ConfigInputStage                 0x08005b27   Thumb Code    44  stm32f7xx_hal_tim.o(i.TIM_TI2_ConfigInputStage)
    i.UART_AdvFeatureConfig                  0x08005b52   Section        0  stm32f7xx_hal_uart.o(i.UART_AdvFeatureConfig)
    i.UART_CheckIdleState                    0x08005c3c   Section        0  stm32f7xx_hal_uart.o(i.UART_CheckIdleState)
    i.UART_DMAAbortOnError                   0x08005cb0   Section        0  stm32f7xx_hal_uart.o(i.UART_DMAAbortOnError)
    UART_DMAAbortOnError                     0x08005cb1   Thumb Code    24  stm32f7xx_hal_uart.o(i.UART_DMAAbortOnError)
    i.UART_EndRxTransfer                     0x08005cc8   Section        0  stm32f7xx_hal_uart.o(i.UART_EndRxTransfer)
    UART_EndRxTransfer                       0x08005cc9   Thumb Code    32  stm32f7xx_hal_uart.o(i.UART_EndRxTransfer)
    i.UART_EndTransmit_IT                    0x08005ce8   Section        0  stm32f7xx_hal_uart.o(i.UART_EndTransmit_IT)
    UART_EndTransmit_IT                      0x08005ce9   Thumb Code    32  stm32f7xx_hal_uart.o(i.UART_EndTransmit_IT)
    i.UART_Receive_IT                        0x08005d08   Section        0  stm32f7xx_hal_uart.o(i.UART_Receive_IT)
    UART_Receive_IT                          0x08005d09   Thumb Code   136  stm32f7xx_hal_uart.o(i.UART_Receive_IT)
    i.UART_SetConfig                         0x08005d90   Section        0  stm32f7xx_hal_uart.o(i.UART_SetConfig)
    i.UART_Transmit_IT                       0x0800611c   Section        0  stm32f7xx_hal_uart.o(i.UART_Transmit_IT)
    UART_Transmit_IT                         0x0800611d   Thumb Code   106  stm32f7xx_hal_uart.o(i.UART_Transmit_IT)
    i.UART_WaitOnFlagUntilTimeout            0x08006186   Section        0  stm32f7xx_hal_uart.o(i.UART_WaitOnFlagUntilTimeout)
    i.USART1_IRQHandler                      0x080061f4   Section        0  stm32f7xx_it.o(i.USART1_IRQHandler)
    i.__0sprintf                             0x08006204   Section        0  printfa.o(i.__0sprintf)
    i.__scatterload_copy                     0x0800622c   Section       14  handlers.o(i.__scatterload_copy)
    i.__scatterload_null                     0x0800623a   Section        2  handlers.o(i.__scatterload_null)
    i.__scatterload_zeroinit                 0x0800623c   Section       14  handlers.o(i.__scatterload_zeroinit)
    i._fp_digits                             0x0800624c   Section        0  printfa.o(i._fp_digits)
    _fp_digits                               0x0800624d   Thumb Code   366  printfa.o(i._fp_digits)
    i._printf_core                           0x080063d0   Section        0  printfa.o(i._printf_core)
    _printf_core                             0x080063d1   Thumb Code  1744  printfa.o(i._printf_core)
    i._printf_post_padding                   0x08006aac   Section        0  printfa.o(i._printf_post_padding)
    _printf_post_padding                     0x08006aad   Thumb Code    36  printfa.o(i._printf_post_padding)
    i._printf_pre_padding                    0x08006ad0   Section        0  printfa.o(i._printf_pre_padding)
    _printf_pre_padding                      0x08006ad1   Thumb Code    46  printfa.o(i._printf_pre_padding)
    i._sputc                                 0x08006afe   Section        0  printfa.o(i._sputc)
    _sputc                                   0x08006aff   Thumb Code    10  printfa.o(i._sputc)
    i.dmc_go                                 0x08006b08   Section        0  dmc.o(i.dmc_go)
    i.dmc_init                               0x08006bf0   Section        0  dmc.o(i.dmc_init)
    i.main                                   0x08006cc0   Section        0  main.o(i.main)
    i.matrix_access                          0x08006d94   Section        0  matrix.o(i.matrix_access)
    i.matrix_mult                            0x08006db4   Section        0  matrix.o(i.matrix_mult)
    i.pid_go                                 0x08006e5c   Section        0  pid.o(i.pid_go)
    i.pid_init                               0x08006f98   Section        0  pid.o(i.pid_init)
    i.updateControlSignalValue               0x08006fdc   Section        0  main.o(i.updateControlSignalValue)
    .constdata                               0x08007008   Section        8  stm32f7xx_hal_dma.o(.constdata)
    flagBitshiftOffset                       0x08007008   Data           8  stm32f7xx_hal_dma.o(.constdata)
    .constdata                               0x08007010   Section       24  system_stm32f7xx.o(.constdata)
    .constdata                               0x08007028   Section       24  stm32746g_discovery.o(.constdata)
    .constdata                               0x08007040   Section    15580  stm32746g_discovery_lcd.o(.constdata)
    .data                                    0x20000000   Section        4  stm32f7xx_hal.o(.data)
    .data                                    0x20000004   Section      136  main.o(.data)
    buffertx                                 0x20000078   Data           2  main.o(.data)
    y                                        0x2000007c   Data           4  main.o(.data)
    u                                        0x20000080   Data           4  main.o(.data)
    i                                        0x20000084   Data           4  main.o(.data)
    tmpval                                   0x20000088   Data           4  main.o(.data)
    .data                                    0x2000008c   Section     1944  dmc.o(.data)
    Ku_res_                                  0x200007d0   Data           4  dmc.o(.data)
    K                                        0x200007d4   Data          12  dmc.o(.data)
    K1                                       0x200007e0   Data          12  dmc.o(.data)
    Ku                                       0x200007ec   Data          12  dmc.o(.data)
    Ku_res                                   0x200007f8   Data          12  dmc.o(.data)
    Mp                                       0x20000804   Data          12  dmc.o(.data)
    dUp                                      0x20000810   Data          12  dmc.o(.data)
    Ke                                       0x2000081c   Data           4  dmc.o(.data)
    u                                        0x20000820   Data           4  dmc.o(.data)
    .data                                    0x20000824   Section       52  pid.o(.data)
    Ku                                       0x20000824   Data           4  pid.o(.data)
    Tu                                       0x20000828   Data           4  pid.o(.data)
    K                                        0x2000082c   Data           4  pid.o(.data)
    Ti                                       0x20000830   Data           4  pid.o(.data)
    Td                                       0x20000834   Data           4  pid.o(.data)
    T                                        0x20000838   Data           4  pid.o(.data)
    e                                        0x2000083c   Data           4  pid.o(.data)
    e_old                                    0x20000840   Data           4  pid.o(.data)
    up                                       0x20000844   Data           4  pid.o(.data)
    ui                                       0x20000848   Data           4  pid.o(.data)
    ud                                       0x2000084c   Data           4  pid.o(.data)
    uw_old                                   0x20000850   Data           4  pid.o(.data)
    u_old                                    0x20000854   Data           4  pid.o(.data)
    .data                                    0x20000858   Section        4  system_stm32f7xx.o(.data)
    .data                                    0x2000085c   Section       24  stm32746g_discovery.o(.data)
    .data                                    0x20000874   Section       44  stm32746g_discovery_lcd.o(.data)
    ActiveLayer                              0x2000089c   Data           4  stm32746g_discovery_lcd.o(.data)
    .data                                    0x200008a0   Section        2  stm32746g_discovery_sdram.o(.data)
    sdramstatus                              0x200008a0   Data           1  stm32746g_discovery_sdram.o(.data)
    sdramstatus                              0x200008a1   Data           1  stm32746g_discovery_sdram.o(.data)
    .bss                                     0x200008a4   Section     2860  main.o(.bss)
    .bss                                     0x200013d0   Section     5632  dmc.o(.bss)
    Mptab                                    0x200013d0   Data        5120  dmc.o(.bss)
    dUptab                                   0x200027d0   Data         256  dmc.o(.bss)
    KuTab                                    0x200028d0   Data         256  dmc.o(.bss)
    .bss                                     0x200029d0   Section      388  stm32746g_discovery_lcd.o(.bss)
    hDma2dHandler                            0x20002a78   Data          64  stm32746g_discovery_lcd.o(.bss)
    DrawProp                                 0x20002ab8   Data          24  stm32746g_discovery_lcd.o(.bss)
    periph_clk_init_struct                   0x20002ad0   Data         132  stm32746g_discovery_lcd.o(.bss)
    .bss                                     0x20002b54   Section      288  stm32746g_discovery_sdram.o(.bss)
    Timing                                   0x20002b88   Data          28  stm32746g_discovery_sdram.o(.bss)
    Command                                  0x20002ba4   Data          16  stm32746g_discovery_sdram.o(.bss)
    dma_handle                               0x20002bb4   Data          96  stm32746g_discovery_sdram.o(.bss)
    dma_handle                               0x20002c14   Data          96  stm32746g_discovery_sdram.o(.bss)
    STACK                                    0x20002c78   Section     1024  startup_stm32f746xx.o(STACK)

    Global Symbols

    Symbol Name                              Value     Ov Type        Size  Object(Section)

    BuildAttributes$$THM_ISAv4$E$P$D$K$B$S$7EM$VFPi5$EXTD16$VFPS$VFMA$PE$PLD8$A:L22UL41UL21$X:L11$S22US41US21$IEEE1$IW$USESV6$~STKCKD$USESV7$~SHL$OSPACE$ROPI$EBA8$MICROLIB$REQ8$PRES8$EABIv2 0x00000000   Number         0  anon$$obj.o ABSOLUTE
    __ARM_use_no_argv                        0x00000000   Number         0  main.o ABSOLUTE
    _printf_a                                0x00000000   Number         0  stubs.o ABSOLUTE
    _printf_c                                0x00000000   Number         0  stubs.o ABSOLUTE
    _printf_charcount                        0x00000000   Number         0  stubs.o ABSOLUTE
    _printf_d                                0x00000000   Number         0  stubs.o ABSOLUTE
    _printf_e                                0x00000000   Number         0  stubs.o ABSOLUTE
    _printf_f                                0x00000000   Number         0  stubs.o ABSOLUTE
    _printf_flags                            0x00000000   Number         0  stubs.o ABSOLUTE
    _printf_fp_dec                           0x00000000   Number         0  stubs.o ABSOLUTE
    _printf_fp_hex                           0x00000000   Number         0  stubs.o ABSOLUTE
    _printf_g                                0x00000000   Number         0  stubs.o ABSOLUTE
    _printf_i                                0x00000000   Number         0  stubs.o ABSOLUTE
    _printf_int_dec                          0x00000000   Number         0  stubs.o ABSOLUTE
    _printf_l                                0x00000000   Number         0  stubs.o ABSOLUTE
    _printf_lc                               0x00000000   Number         0  stubs.o ABSOLUTE
    _printf_ll                               0x00000000   Number         0  stubs.o ABSOLUTE
    _printf_lld                              0x00000000   Number         0  stubs.o ABSOLUTE
    _printf_lli                              0x00000000   Number         0  stubs.o ABSOLUTE
    _printf_llo                              0x00000000   Number         0  stubs.o ABSOLUTE
    _printf_llu                              0x00000000   Number         0  stubs.o ABSOLUTE
    _printf_llx                              0x00000000   Number         0  stubs.o ABSOLUTE
    _printf_longlong_dec                     0x00000000   Number         0  stubs.o ABSOLUTE
    _printf_longlong_hex                     0x00000000   Number         0  stubs.o ABSOLUTE
    _printf_longlong_oct                     0x00000000   Number         0  stubs.o ABSOLUTE
    _printf_ls                               0x00000000   Number         0  stubs.o ABSOLUTE
    _printf_mbtowc                           0x00000000   Number         0  stubs.o ABSOLUTE
    _printf_n                                0x00000000   Number         0  stubs.o ABSOLUTE
    _printf_o                                0x00000000   Number         0  stubs.o ABSOLUTE
    _printf_p                                0x00000000   Number         0  stubs.o ABSOLUTE
    _printf_percent                          0x00000000   Number         0  stubs.o ABSOLUTE
    _printf_pre_padding                      0x00000000   Number         0  stubs.o ABSOLUTE
    _printf_return_value                     0x00000000   Number         0  stubs.o ABSOLUTE
    _printf_s                                0x00000000   Number         0  stubs.o ABSOLUTE
    _printf_sizespec                         0x00000000   Number         0  stubs.o ABSOLUTE
    _printf_str                              0x00000000   Number         0  stubs.o ABSOLUTE
    _printf_truncate_signed                  0x00000000   Number         0  stubs.o ABSOLUTE
    _printf_truncate_unsigned                0x00000000   Number         0  stubs.o ABSOLUTE
    _printf_u                                0x00000000   Number         0  stubs.o ABSOLUTE
    _printf_wc                               0x00000000   Number         0  stubs.o ABSOLUTE
    _printf_wctomb                           0x00000000   Number         0  stubs.o ABSOLUTE
    _printf_widthprec                        0x00000000   Number         0  stubs.o ABSOLUTE
    _printf_x                                0x00000000   Number         0  stubs.o ABSOLUTE
    __cpp_initialize__aeabi_                  - Undefined Weak Reference
    __cxa_finalize                            - Undefined Weak Reference
    _clock_init                               - Undefined Weak Reference
    _microlib_exit                            - Undefined Weak Reference
    __Vectors_Size                           0x000001c8   Number         0  startup_stm32f746xx.o ABSOLUTE
    __Vectors                                0x08000000   Data           4  startup_stm32f746xx.o(RESET)
    __Vectors_End                            0x080001c8   Data           0  startup_stm32f746xx.o(RESET)
    __main                                   0x080001c9   Thumb Code     0  entry.o(.ARM.Collect$$$$00000000)
    _main_stk                                0x080001c9   Thumb Code     0  entry2.o(.ARM.Collect$$$$00000001)
    _main_scatterload                        0x080001cd   Thumb Code     0  entry5.o(.ARM.Collect$$$$00000004)
    __main_after_scatterload                 0x080001d1   Thumb Code     0  entry5.o(.ARM.Collect$$$$00000004)
    _main_clock                              0x080001d1   Thumb Code     0  entry7b.o(.ARM.Collect$$$$00000008)
    _main_cpp_init                           0x080001d1   Thumb Code     0  entry8b.o(.ARM.Collect$$$$0000000A)
    _main_init                               0x080001d1   Thumb Code     0  entry9a.o(.ARM.Collect$$$$0000000B)
    __rt_final_cpp                           0x080001d9   Thumb Code     0  entry10a.o(.ARM.Collect$$$$0000000D)
    __rt_final_exit                          0x080001d9   Thumb Code     0  entry11a.o(.ARM.Collect$$$$0000000F)
    Reset_Handler                            0x080001dd   Thumb Code     8  startup_stm32f746xx.o(.text)
    NMI_Handler                              0x080001e5   Thumb Code     2  startup_stm32f746xx.o(.text)
    HardFault_Handler                        0x080001e7   Thumb Code     2  startup_stm32f746xx.o(.text)
    MemManage_Handler                        0x080001e9   Thumb Code     2  startup_stm32f746xx.o(.text)
    BusFault_Handler                         0x080001eb   Thumb Code     2  startup_stm32f746xx.o(.text)
    UsageFault_Handler                       0x080001ed   Thumb Code     2  startup_stm32f746xx.o(.text)
    SVC_Handler                              0x080001ef   Thumb Code     2  startup_stm32f746xx.o(.text)
    DebugMon_Handler                         0x080001f1   Thumb Code     2  startup_stm32f746xx.o(.text)
    PendSV_Handler                           0x080001f3   Thumb Code     2  startup_stm32f746xx.o(.text)
    ADC_IRQHandler                           0x080001f7   Thumb Code     0  startup_stm32f746xx.o(.text)
    CAN1_RX0_IRQHandler                      0x080001f7   Thumb Code     0  startup_stm32f746xx.o(.text)
    CAN1_RX1_IRQHandler                      0x080001f7   Thumb Code     0  startup_stm32f746xx.o(.text)
    CAN1_SCE_IRQHandler                      0x080001f7   Thumb Code     0  startup_stm32f746xx.o(.text)
    CAN1_TX_IRQHandler                       0x080001f7   Thumb Code     0  startup_stm32f746xx.o(.text)
    CAN2_RX0_IRQHandler                      0x080001f7   Thumb Code     0  startup_stm32f746xx.o(.text)
    CAN2_RX1_IRQHandler                      0x080001f7   Thumb Code     0  startup_stm32f746xx.o(.text)
    CAN2_SCE_IRQHandler                      0x080001f7   Thumb Code     0  startup_stm32f746xx.o(.text)
    CAN2_TX_IRQHandler                       0x080001f7   Thumb Code     0  startup_stm32f746xx.o(.text)
    CEC_IRQHandler                           0x080001f7   Thumb Code     0  startup_stm32f746xx.o(.text)
    DCMI_IRQHandler                          0x080001f7   Thumb Code     0  startup_stm32f746xx.o(.text)
    DMA1_Stream0_IRQHandler                  0x080001f7   Thumb Code     0  startup_stm32f746xx.o(.text)
    DMA1_Stream1_IRQHandler                  0x080001f7   Thumb Code     0  startup_stm32f746xx.o(.text)
    DMA1_Stream2_IRQHandler                  0x080001f7   Thumb Code     0  startup_stm32f746xx.o(.text)
    DMA1_Stream3_IRQHandler                  0x080001f7   Thumb Code     0  startup_stm32f746xx.o(.text)
    DMA1_Stream4_IRQHandler                  0x080001f7   Thumb Code     0  startup_stm32f746xx.o(.text)
    DMA1_Stream5_IRQHandler                  0x080001f7   Thumb Code     0  startup_stm32f746xx.o(.text)
    DMA1_Stream7_IRQHandler                  0x080001f7   Thumb Code     0  startup_stm32f746xx.o(.text)
    DMA2D_IRQHandler                         0x080001f7   Thumb Code     0  startup_stm32f746xx.o(.text)
    DMA2_Stream1_IRQHandler                  0x080001f7   Thumb Code     0  startup_stm32f746xx.o(.text)
    DMA2_Stream2_IRQHandler                  0x080001f7   Thumb Code     0  startup_stm32f746xx.o(.text)
    DMA2_Stream3_IRQHandler                  0x080001f7   Thumb Code     0  startup_stm32f746xx.o(.text)
    DMA2_Stream4_IRQHandler                  0x080001f7   Thumb Code     0  startup_stm32f746xx.o(.text)
    DMA2_Stream5_IRQHandler                  0x080001f7   Thumb Code     0  startup_stm32f746xx.o(.text)
    DMA2_Stream6_IRQHandler                  0x080001f7   Thumb Code     0  startup_stm32f746xx.o(.text)
    DMA2_Stream7_IRQHandler                  0x080001f7   Thumb Code     0  startup_stm32f746xx.o(.text)
    ETH_IRQHandler                           0x080001f7   Thumb Code     0  startup_stm32f746xx.o(.text)
    ETH_WKUP_IRQHandler                      0x080001f7   Thumb Code     0  startup_stm32f746xx.o(.text)
    EXTI0_IRQHandler                         0x080001f7   Thumb Code     0  startup_stm32f746xx.o(.text)
    EXTI1_IRQHandler                         0x080001f7   Thumb Code     0  startup_stm32f746xx.o(.text)
    EXTI2_IRQHandler                         0x080001f7   Thumb Code     0  startup_stm32f746xx.o(.text)
    EXTI3_IRQHandler                         0x080001f7   Thumb Code     0  startup_stm32f746xx.o(.text)
    EXTI4_IRQHandler                         0x080001f7   Thumb Code     0  startup_stm32f746xx.o(.text)
    EXTI9_5_IRQHandler                       0x080001f7   Thumb Code     0  startup_stm32f746xx.o(.text)
    FLASH_IRQHandler                         0x080001f7   Thumb Code     0  startup_stm32f746xx.o(.text)
    FMC_IRQHandler                           0x080001f7   Thumb Code     0  startup_stm32f746xx.o(.text)
    FPU_IRQHandler                           0x080001f7   Thumb Code     0  startup_stm32f746xx.o(.text)
    I2C1_ER_IRQHandler                       0x080001f7   Thumb Code     0  startup_stm32f746xx.o(.text)
    I2C1_EV_IRQHandler                       0x080001f7   Thumb Code     0  startup_stm32f746xx.o(.text)
    I2C2_ER_IRQHandler                       0x080001f7   Thumb Code     0  startup_stm32f746xx.o(.text)
    I2C2_EV_IRQHandler                       0x080001f7   Thumb Code     0  startup_stm32f746xx.o(.text)
    I2C3_ER_IRQHandler                       0x080001f7   Thumb Code     0  startup_stm32f746xx.o(.text)
    I2C3_EV_IRQHandler                       0x080001f7   Thumb Code     0  startup_stm32f746xx.o(.text)
    I2C4_ER_IRQHandler                       0x080001f7   Thumb Code     0  startup_stm32f746xx.o(.text)
    I2C4_EV_IRQHandler                       0x080001f7   Thumb Code     0  startup_stm32f746xx.o(.text)
    LPTIM1_IRQHandler                        0x080001f7   Thumb Code     0  startup_stm32f746xx.o(.text)
    LTDC_ER_IRQHandler                       0x080001f7   Thumb Code     0  startup_stm32f746xx.o(.text)
    LTDC_IRQHandler                          0x080001f7   Thumb Code     0  startup_stm32f746xx.o(.text)
    OTG_FS_IRQHandler                        0x080001f7   Thumb Code     0  startup_stm32f746xx.o(.text)
    OTG_FS_WKUP_IRQHandler                   0x080001f7   Thumb Code     0  startup_stm32f746xx.o(.text)
    OTG_HS_EP1_IN_IRQHandler                 0x080001f7   Thumb Code     0  startup_stm32f746xx.o(.text)
    OTG_HS_EP1_OUT_IRQHandler                0x080001f7   Thumb Code     0  startup_stm32f746xx.o(.text)
    OTG_HS_IRQHandler                        0x080001f7   Thumb Code     0  startup_stm32f746xx.o(.text)
    OTG_HS_WKUP_IRQHandler                   0x080001f7   Thumb Code     0  startup_stm32f746xx.o(.text)
    PVD_IRQHandler                           0x080001f7   Thumb Code     0  startup_stm32f746xx.o(.text)
    QUADSPI_IRQHandler                       0x080001f7   Thumb Code     0  startup_stm32f746xx.o(.text)
    RCC_IRQHandler                           0x080001f7   Thumb Code     0  startup_stm32f746xx.o(.text)
    RNG_IRQHandler                           0x080001f7   Thumb Code     0  startup_stm32f746xx.o(.text)
    RTC_Alarm_IRQHandler                     0x080001f7   Thumb Code     0  startup_stm32f746xx.o(.text)
    RTC_WKUP_IRQHandler                      0x080001f7   Thumb Code     0  startup_stm32f746xx.o(.text)
    SAI1_IRQHandler                          0x080001f7   Thumb Code     0  startup_stm32f746xx.o(.text)
    SAI2_IRQHandler                          0x080001f7   Thumb Code     0  startup_stm32f746xx.o(.text)
    SDMMC1_IRQHandler                        0x080001f7   Thumb Code     0  startup_stm32f746xx.o(.text)
    SPDIF_RX_IRQHandler                      0x080001f7   Thumb Code     0  startup_stm32f746xx.o(.text)
    SPI1_IRQHandler                          0x080001f7   Thumb Code     0  startup_stm32f746xx.o(.text)
    SPI2_IRQHandler                          0x080001f7   Thumb Code     0  startup_stm32f746xx.o(.text)
    SPI3_IRQHandler                          0x080001f7   Thumb Code     0  startup_stm32f746xx.o(.text)
    SPI4_IRQHandler                          0x080001f7   Thumb Code     0  startup_stm32f746xx.o(.text)
    SPI5_IRQHandler                          0x080001f7   Thumb Code     0  startup_stm32f746xx.o(.text)
    SPI6_IRQHandler                          0x080001f7   Thumb Code     0  startup_stm32f746xx.o(.text)
    TAMP_STAMP_IRQHandler                    0x080001f7   Thumb Code     0  startup_stm32f746xx.o(.text)
    TIM1_BRK_TIM9_IRQHandler                 0x080001f7   Thumb Code     0  startup_stm32f746xx.o(.text)
    TIM1_CC_IRQHandler                       0x080001f7   Thumb Code     0  startup_stm32f746xx.o(.text)
    TIM1_TRG_COM_TIM11_IRQHandler            0x080001f7   Thumb Code     0  startup_stm32f746xx.o(.text)
    TIM1_UP_TIM10_IRQHandler                 0x080001f7   Thumb Code     0  startup_stm32f746xx.o(.text)
    TIM6_DAC_IRQHandler                      0x080001f7   Thumb Code     0  startup_stm32f746xx.o(.text)
    TIM7_IRQHandler                          0x080001f7   Thumb Code     0  startup_stm32f746xx.o(.text)
    TIM8_BRK_TIM12_IRQHandler                0x080001f7   Thumb Code     0  startup_stm32f746xx.o(.text)
    TIM8_CC_IRQHandler                       0x080001f7   Thumb Code     0  startup_stm32f746xx.o(.text)
    TIM8_TRG_COM_TIM14_IRQHandler            0x080001f7   Thumb Code     0  startup_stm32f746xx.o(.text)
    TIM8_UP_TIM13_IRQHandler                 0x080001f7   Thumb Code     0  startup_stm32f746xx.o(.text)
    UART4_IRQHandler                         0x080001f7   Thumb Code     0  startup_stm32f746xx.o(.text)
    UART5_IRQHandler                         0x080001f7   Thumb Code     0  startup_stm32f746xx.o(.text)
    UART7_IRQHandler                         0x080001f7   Thumb Code     0  startup_stm32f746xx.o(.text)
    UART8_IRQHandler                         0x080001f7   Thumb Code     0  startup_stm32f746xx.o(.text)
    USART2_IRQHandler                        0x080001f7   Thumb Code     0  startup_stm32f746xx.o(.text)
    USART3_IRQHandler                        0x080001f7   Thumb Code     0  startup_stm32f746xx.o(.text)
    USART6_IRQHandler                        0x080001f7   Thumb Code     0  startup_stm32f746xx.o(.text)
    WWDG_IRQHandler                          0x080001f7   Thumb Code     0  startup_stm32f746xx.o(.text)
    __aeabi_memcpy                           0x08000201   Thumb Code    36  memcpya.o(.text)
    __aeabi_memcpy4                          0x08000201   Thumb Code     0  memcpya.o(.text)
    __aeabi_memcpy8                          0x08000201   Thumb Code     0  memcpya.o(.text)
    __aeabi_uidiv                            0x08000225   Thumb Code     0  uidiv.o(.text)
    __aeabi_uidivmod                         0x08000225   Thumb Code    44  uidiv.o(.text)
    __aeabi_uldivmod                         0x08000251   Thumb Code    98  uldiv.o(.text)
    __I$use$fp                               0x080002b3   Thumb Code     0  iusefp.o(.text)
    __aeabi_dadd                             0x080002b3   Thumb Code   322  dadd.o(.text)
    __aeabi_dsub                             0x080003f5   Thumb Code     6  dadd.o(.text)
    __aeabi_drsub                            0x080003fb   Thumb Code     6  dadd.o(.text)
    __aeabi_dmul                             0x08000401   Thumb Code   228  dmul.o(.text)
    __aeabi_ddiv                             0x080004e5   Thumb Code   222  ddiv.o(.text)
    __aeabi_d2ulz                            0x080005c3   Thumb Code    48  dfixul.o(.text)
    __aeabi_cdrcmple                         0x080005f5   Thumb Code    48  cdrcmple.o(.text)
    __scatterload                            0x08000625   Thumb Code    28  init.o(.text)
    __scatterload_rt2                        0x08000625   Thumb Code     0  init.o(.text)
    __aeabi_llsl                             0x08000649   Thumb Code    30  llshl.o(.text)
    _ll_shift_l                              0x08000649   Thumb Code     0  llshl.o(.text)
    __aeabi_llsr                             0x08000667   Thumb Code    32  llushr.o(.text)
    _ll_ushift_r                             0x08000667   Thumb Code     0  llushr.o(.text)
    __aeabi_lasr                             0x08000687   Thumb Code    36  llsshr.o(.text)
    _ll_sshift_r                             0x08000687   Thumb Code     0  llsshr.o(.text)
    _double_round                            0x080006ab   Thumb Code    30  depilogue.o(.text)
    _double_epilogue                         0x080006c9   Thumb Code   156  depilogue.o(.text)
    __decompress                             0x08000765   Thumb Code     0  __dclz77c.o(.text)
    __decompress2                            0x08000765   Thumb Code    94  __dclz77c.o(.text)
    BSP_LCD_Clear                            0x080009d1   Thumb Code    56  stm32746g_discovery_lcd.o(i.BSP_LCD_Clear)
    BSP_LCD_ClockConfig                      0x08000a11   Thumb Code    38  stm32746g_discovery_lcd.o(i.BSP_LCD_ClockConfig)
    BSP_LCD_DisplayOn                        0x08000a3d   Thumb Code    40  stm32746g_discovery_lcd.o(i.BSP_LCD_DisplayOn)
    BSP_LCD_GetXSize                         0x08000a71   Thumb Code    22  stm32746g_discovery_lcd.o(i.BSP_LCD_GetXSize)
    BSP_LCD_GetYSize                         0x08000a91   Thumb Code    22  stm32746g_discovery_lcd.o(i.BSP_LCD_GetYSize)
    BSP_LCD_Init                             0x08000ab1   Thumb Code   156  stm32746g_discovery_lcd.o(i.BSP_LCD_Init)
    BSP_LCD_LayerDefaultInit                 0x08000b61   Thumb Code   132  stm32746g_discovery_lcd.o(i.BSP_LCD_LayerDefaultInit)
    BSP_LCD_MspInit                          0x08000bf1   Thumb Code   402  stm32746g_discovery_lcd.o(i.BSP_LCD_MspInit)
    BSP_LCD_SelectLayer                      0x08000d9d   Thumb Code     6  stm32746g_discovery_lcd.o(i.BSP_LCD_SelectLayer)
    BSP_LCD_SetFont                          0x08000da9   Thumb Code    18  stm32746g_discovery_lcd.o(i.BSP_LCD_SetFont)
    BSP_LCD_SetTransparency                  0x08000dc5   Thumb Code    18  stm32746g_discovery_lcd.o(i.BSP_LCD_SetTransparency)
    BSP_LED_Init                             0x08000ddd   Thumb Code    84  stm32746g_discovery.o(i.BSP_LED_Init)
    BSP_LED_On                               0x08000e3d   Thumb Code    26  stm32746g_discovery.o(i.BSP_LED_On)
    BSP_PB_Init                              0x08000e61   Thumb Code   210  stm32746g_discovery.o(i.BSP_PB_Init)
    BSP_SDRAM_Init                           0x08000f4d   Thumb Code   122  stm32746g_discovery_sdram.o(i.BSP_SDRAM_Init)
    BSP_SDRAM_Initialization_sequence        0x08000fd9   Thumb Code   142  stm32746g_discovery_sdram.o(i.BSP_SDRAM_Initialization_sequence)
    BSP_SDRAM_MspInit                        0x08001071   Thumb Code   418  stm32746g_discovery_sdram.o(i.BSP_SDRAM_MspInit)
    DMA1_Stream6_IRQHandler                  0x08001239   Thumb Code    10  stm32f7xx_it.o(i.DMA1_Stream6_IRQHandler)
    DMA2_Stream0_IRQHandler                  0x08001351   Thumb Code    10  stm32f7xx_it.o(i.DMA2_Stream0_IRQHandler)
    EXTI15_10_IRQHandler                     0x0800147b   Thumb Code    12  stm32f7xx_it.o(i.EXTI15_10_IRQHandler)
    Error_Handler                            0x08001487   Thumb Code     4  main.o(i.Error_Handler)
    FMC_SDRAM_Init                           0x0800148b   Thumb Code   116  stm32f7xx_ll_fmc.o(i.FMC_SDRAM_Init)
    FMC_SDRAM_ProgramRefreshRate             0x080014ff   Thumb Code    14  stm32f7xx_ll_fmc.o(i.FMC_SDRAM_ProgramRefreshRate)
    FMC_SDRAM_SendCommand                    0x0800150d   Thumb Code    82  stm32f7xx_ll_fmc.o(i.FMC_SDRAM_SendCommand)
    FMC_SDRAM_Timing_Init                    0x08001561   Thumb Code   152  stm32f7xx_ll_fmc.o(i.FMC_SDRAM_Timing_Init)
    HAL_ADC_ConfigChannel                    0x080015fd   Thumb Code   414  stm32f7xx_hal_adc.o(i.HAL_ADC_ConfigChannel)
    HAL_ADC_ConvCpltCallback                 0x080017b1   Thumb Code    70  main.o(i.HAL_ADC_ConvCpltCallback)
    HAL_ADC_ConvHalfCpltCallback             0x08001809   Thumb Code     2  stm32f7xx_hal_adc.o(i.HAL_ADC_ConvHalfCpltCallback)
    HAL_ADC_ErrorCallback                    0x0800180b   Thumb Code     2  stm32f7xx_hal_adc.o(i.HAL_ADC_ErrorCallback)
    HAL_ADC_Init                             0x0800180d   Thumb Code   100  stm32f7xx_hal_adc.o(i.HAL_ADC_Init)
    HAL_ADC_MspInit                          0x08001875   Thumb Code   210  stm32f7xx_hal_msp.o(i.HAL_ADC_MspInit)
    HAL_ADC_Start                            0x08001961   Thumb Code   238  stm32f7xx_hal_adc.o(i.HAL_ADC_Start)
    HAL_ADC_Start_DMA                        0x08001a61   Thumb Code   300  stm32f7xx_hal_adc.o(i.HAL_ADC_Start_DMA)
    HAL_DMA2D_ConfigLayer                    0x08001ba9   Thumb Code   228  stm32f7xx_hal_dma2d.o(i.HAL_DMA2D_ConfigLayer)
    HAL_DMA2D_Init                           0x08001c91   Thumb Code    96  stm32f7xx_hal_dma2d.o(i.HAL_DMA2D_Init)
    HAL_DMA2D_MspInit                        0x08001cf1   Thumb Code     2  stm32f7xx_hal_dma2d.o(i.HAL_DMA2D_MspInit)
    HAL_DMA2D_PollForTransfer                0x08001cf3   Thumb Code   360  stm32f7xx_hal_dma2d.o(i.HAL_DMA2D_PollForTransfer)
    HAL_DMA2D_Start                          0x08001e5b   Thumb Code    78  stm32f7xx_hal_dma2d.o(i.HAL_DMA2D_Start)
    HAL_DMA_Abort_IT                         0x08001ea9   Thumb Code    40  stm32f7xx_hal_dma.o(i.HAL_DMA_Abort_IT)
    HAL_DMA_DeInit                           0x08001ed1   Thumb Code    98  stm32f7xx_hal_dma.o(i.HAL_DMA_DeInit)
    HAL_DMA_IRQHandler                       0x08001f35   Thumb Code   574  stm32f7xx_hal_dma.o(i.HAL_DMA_IRQHandler)
    HAL_DMA_Init                             0x0800217d   Thumb Code   228  stm32f7xx_hal_dma.o(i.HAL_DMA_Init)
    HAL_DMA_Start_IT                         0x08002265   Thumb Code   158  stm32f7xx_hal_dma.o(i.HAL_DMA_Start_IT)
    HAL_Delay                                0x08002303   Thumb Code    26  stm32f7xx_hal.o(i.HAL_Delay)
    HAL_GPIO_DeInit                          0x0800231d   Thumb Code   336  stm32f7xx_hal_gpio.o(i.HAL_GPIO_DeInit)
    HAL_GPIO_EXTI_Callback                   0x0800249d   Thumb Code     2  main.o(i.HAL_GPIO_EXTI_Callback)
    HAL_GPIO_EXTI_IRQHandler                 0x080024a1   Thumb Code    24  stm32f7xx_hal_gpio.o(i.HAL_GPIO_EXTI_IRQHandler)
    HAL_GPIO_Init                            0x080024bd   Thumb Code   484  stm32f7xx_hal_gpio.o(i.HAL_GPIO_Init)
    HAL_GPIO_WritePin                        0x080026d5   Thumb Code    12  stm32f7xx_hal_gpio.o(i.HAL_GPIO_WritePin)
    HAL_GetTick                              0x080026e1   Thumb Code     6  stm32f7xx_hal.o(i.HAL_GetTick)
    HAL_I2C_Init                             0x080026ed   Thumb Code   184  stm32f7xx_hal_i2c.o(i.HAL_I2C_Init)
    HAL_I2C_Master_Transmit                  0x080027a9   Thumb Code   368  stm32f7xx_hal_i2c.o(i.HAL_I2C_Master_Transmit)
    HAL_I2C_MspInit                          0x0800291d   Thumb Code   142  stm32f7xx_hal_msp.o(i.HAL_I2C_MspInit)
    HAL_IncTick                              0x080029c1   Thumb Code    12  stm32f7xx_hal.o(i.HAL_IncTick)
    HAL_Init                                 0x080029d1   Thumb Code    22  stm32f7xx_hal.o(i.HAL_Init)
    HAL_InitTick                             0x080029e9   Thumb Code    36  stm32f7xx_hal.o(i.HAL_InitTick)
    HAL_LTDC_ConfigLayer                     0x08002a11   Thumb Code    94  stm32f7xx_hal_ltdc.o(i.HAL_LTDC_ConfigLayer)
    HAL_LTDC_GetState                        0x08002a6f   Thumb Code     8  stm32f7xx_hal_ltdc.o(i.HAL_LTDC_GetState)
    HAL_LTDC_Init                            0x08002a79   Thumb Code   290  stm32f7xx_hal_ltdc.o(i.HAL_LTDC_Init)
    HAL_LTDC_MspInit                         0x08002ba1   Thumb Code   182  stm32f7xx_hal_msp.o(i.HAL_LTDC_MspInit)
    HAL_LTDC_SetAlpha                        0x08002c75   Thumb Code    92  stm32f7xx_hal_ltdc.o(i.HAL_LTDC_SetAlpha)
    HAL_MspInit                              0x08002cd1   Thumb Code    86  stm32f7xx_hal_msp.o(i.HAL_MspInit)
    HAL_NVIC_EnableIRQ                       0x08002d27   Thumb Code    26  stm32f7xx_hal_cortex.o(i.HAL_NVIC_EnableIRQ)
    HAL_NVIC_SetPriority                     0x08002d41   Thumb Code   124  stm32f7xx_hal_cortex.o(i.HAL_NVIC_SetPriority)
    HAL_NVIC_SetPriorityGrouping             0x08002dbd   Thumb Code    32  stm32f7xx_hal_cortex.o(i.HAL_NVIC_SetPriorityGrouping)
    HAL_RCCEx_PeriphCLKConfig                0x08002de5   Thumb Code  2322  stm32f7xx_hal_rcc_ex.o(i.HAL_RCCEx_PeriphCLKConfig)
    HAL_RCC_ClockConfig                      0x080036fd   Thumb Code   420  stm32f7xx_hal_rcc.o(i.HAL_RCC_ClockConfig)
    HAL_RCC_GetHCLKFreq                      0x080038b1   Thumb Code     6  stm32f7xx_hal_rcc.o(i.HAL_RCC_GetHCLKFreq)
    HAL_RCC_GetPCLK1Freq                     0x080038bd   Thumb Code    36  stm32f7xx_hal_rcc.o(i.HAL_RCC_GetPCLK1Freq)
    HAL_RCC_GetPCLK2Freq                     0x080038e9   Thumb Code    36  stm32f7xx_hal_rcc.o(i.HAL_RCC_GetPCLK2Freq)
    HAL_RCC_GetSysClockFreq                  0x08003915   Thumb Code   168  stm32f7xx_hal_rcc.o(i.HAL_RCC_GetSysClockFreq)
    HAL_RCC_OscConfig                        0x080039c9   Thumb Code  1210  stm32f7xx_hal_rcc.o(i.HAL_RCC_OscConfig)
    HAL_SDRAM_Init                           0x08003e89   Thumb Code    64  stm32f7xx_hal_sdram.o(i.HAL_SDRAM_Init)
    HAL_SDRAM_MspInit                        0x08003ec9   Thumb Code     2  stm32f7xx_hal_sdram.o(i.HAL_SDRAM_MspInit)
    HAL_SDRAM_ProgramRefreshRate             0x08003ecb   Thumb Code    40  stm32f7xx_hal_sdram.o(i.HAL_SDRAM_ProgramRefreshRate)
    HAL_SDRAM_SendCommand                    0x08003ef3   Thumb Code    58  stm32f7xx_hal_sdram.o(i.HAL_SDRAM_SendCommand)
    HAL_SYSTICK_CLKSourceConfig              0x08003f2d   Thumb Code    40  stm32f7xx_hal_cortex.o(i.HAL_SYSTICK_CLKSourceConfig)
    HAL_SYSTICK_Callback                     0x08003f55   Thumb Code     2  stm32f7xx_hal_cortex.o(i.HAL_SYSTICK_Callback)
    HAL_SYSTICK_Config                       0x08003f57   Thumb Code    52  stm32f7xx_hal_cortex.o(i.HAL_SYSTICK_Config)
    HAL_SYSTICK_IRQHandler                   0x08003f8b   Thumb Code     8  stm32f7xx_hal_cortex.o(i.HAL_SYSTICK_IRQHandler)
    HAL_TIMEx_BreakCallback                  0x08003f93   Thumb Code     2  stm32f7xx_hal_tim_ex.o(i.HAL_TIMEx_BreakCallback)
    HAL_TIMEx_CommutationCallback            0x08003f95   Thumb Code     2  stm32f7xx_hal_tim_ex.o(i.HAL_TIMEx_CommutationCallback)
    HAL_TIMEx_MasterConfigSynchronization    0x08003f99   Thumb Code    98  stm32f7xx_hal_tim_ex.o(i.HAL_TIMEx_MasterConfigSynchronization)
    HAL_TIM_Base_Init                        0x08004005   Thumb Code    46  stm32f7xx_hal_tim.o(i.HAL_TIM_Base_Init)
    HAL_TIM_Base_MspInit                     0x08004035   Thumb Code   148  stm32f7xx_hal_msp.o(i.HAL_TIM_Base_MspInit)
    HAL_TIM_Base_Start_IT                    0x080040d9   Thumb Code    30  stm32f7xx_hal_tim.o(i.HAL_TIM_Base_Start_IT)
    HAL_TIM_ConfigClockSource                0x080040f9   Thumb Code   308  stm32f7xx_hal_tim.o(i.HAL_TIM_ConfigClockSource)
    HAL_TIM_IC_CaptureCallback               0x08004231   Thumb Code     2  stm32f7xx_hal_tim.o(i.HAL_TIM_IC_CaptureCallback)
    HAL_TIM_IRQHandler                       0x08004233   Thumb Code   440  stm32f7xx_hal_tim.o(i.HAL_TIM_IRQHandler)
    HAL_TIM_OC_DelayElapsedCallback          0x080043eb   Thumb Code     2  stm32f7xx_hal_tim.o(i.HAL_TIM_OC_DelayElapsedCallback)
    HAL_TIM_PWM_PulseFinishedCallback        0x080043ed   Thumb Code     2  stm32f7xx_hal_tim.o(i.HAL_TIM_PWM_PulseFinishedCallback)
    HAL_TIM_PeriodElapsedCallback            0x080043f1   Thumb Code   318  main.o(i.HAL_TIM_PeriodElapsedCallback)
    HAL_TIM_TriggerCallback                  0x08004585   Thumb Code     2  stm32f7xx_hal_tim.o(i.HAL_TIM_TriggerCallback)
    HAL_UART_DeInit                          0x08004587   Thumb Code    72  stm32f7xx_hal_uart.o(i.HAL_UART_DeInit)
    HAL_UART_ErrorCallback                   0x080045cf   Thumb Code     2  stm32f7xx_hal_uart.o(i.HAL_UART_ErrorCallback)
    HAL_UART_GetState                        0x080045d1   Thumb Code    20  stm32f7xx_hal_uart.o(i.HAL_UART_GetState)
    HAL_UART_IRQHandler                      0x080045e5   Thumb Code   344  stm32f7xx_hal_uart.o(i.HAL_UART_IRQHandler)
    HAL_UART_Init                            0x08004741   Thumb Code   120  stm32f7xx_hal_uart.o(i.HAL_UART_Init)
    HAL_UART_MspDeInit                       0x080047b9   Thumb Code    44  stm32f7xx_hal_msp.o(i.HAL_UART_MspDeInit)
    HAL_UART_MspInit                         0x080047f1   Thumb Code   140  stm32f7xx_hal_msp.o(i.HAL_UART_MspInit)
    HAL_UART_RxCpltCallback                  0x08004889   Thumb Code     2  stm32f7xx_hal_uart.o(i.HAL_UART_RxCpltCallback)
    HAL_UART_Transmit_IT                     0x0800488b   Thumb Code    90  stm32f7xx_hal_uart.o(i.HAL_UART_Transmit_IT)
    HAL_UART_TxCpltCallback                  0x080048e5   Thumb Code     2  stm32f7xx_hal_uart.o(i.HAL_UART_TxCpltCallback)
    SysTick_Handler                          0x08005891   Thumb Code    12  stm32f7xx_it.o(i.SysTick_Handler)
    SystemClock_Config                       0x0800589d   Thumb Code   170  main.o(i.SystemClock_Config)
    SystemInit                               0x08005949   Thumb Code    82  system_stm32f7xx.o(i.SystemInit)
    TIM2_IRQHandler                          0x080059ad   Thumb Code    10  stm32f7xx_it.o(i.TIM2_IRQHandler)
    TIM3_IRQHandler                          0x080059bd   Thumb Code    10  stm32f7xx_it.o(i.TIM3_IRQHandler)
    TIM4_IRQHandler                          0x080059cd   Thumb Code    10  stm32f7xx_it.o(i.TIM4_IRQHandler)
    TIM5_IRQHandler                          0x080059dd   Thumb Code    10  stm32f7xx_it.o(i.TIM5_IRQHandler)
    TIM_Base_SetConfig                       0x080059ed   Thumb Code   184  stm32f7xx_hal_tim.o(i.TIM_Base_SetConfig)
    TIM_ETR_SetConfig                        0x08005ad1   Thumb Code    24  stm32f7xx_hal_tim.o(i.TIM_ETR_SetConfig)
    UART_AdvFeatureConfig                    0x08005b53   Thumb Code   234  stm32f7xx_hal_uart.o(i.UART_AdvFeatureConfig)
    UART_CheckIdleState                      0x08005c3d   Thumb Code   116  stm32f7xx_hal_uart.o(i.UART_CheckIdleState)
    UART_SetConfig                           0x08005d91   Thumb Code   858  stm32f7xx_hal_uart.o(i.UART_SetConfig)
    UART_WaitOnFlagUntilTimeout              0x08006187   Thumb Code   108  stm32f7xx_hal_uart.o(i.UART_WaitOnFlagUntilTimeout)
    USART1_IRQHandler                        0x080061f5   Thumb Code    10  stm32f7xx_it.o(i.USART1_IRQHandler)
    __0sprintf                               0x08006205   Thumb Code    34  printfa.o(i.__0sprintf)
    __1sprintf                               0x08006205   Thumb Code     0  printfa.o(i.__0sprintf)
    __2sprintf                               0x08006205   Thumb Code     0  printfa.o(i.__0sprintf)
    __c89sprintf                             0x08006205   Thumb Code     0  printfa.o(i.__0sprintf)
    sprintf                                  0x08006205   Thumb Code     0  printfa.o(i.__0sprintf)
    __scatterload_copy                       0x0800622d   Thumb Code    14  handlers.o(i.__scatterload_copy)
    __scatterload_null                       0x0800623b   Thumb Code     2  handlers.o(i.__scatterload_null)
    __scatterload_zeroinit                   0x0800623d   Thumb Code    14  handlers.o(i.__scatterload_zeroinit)
    dmc_go                                   0x08006b09   Thumb Code   208  dmc.o(i.dmc_go)
    dmc_init                                 0x08006bf1   Thumb Code   180  dmc.o(i.dmc_init)
    main                                     0x08006cc1   Thumb Code   200  main.o(i.main)
    matrix_access                            0x08006d95   Thumb Code    32  matrix.o(i.matrix_access)
    matrix_mult                              0x08006db5   Thumb Code   162  matrix.o(i.matrix_mult)
    pid_go                                   0x08006e5d   Thumb Code   272  pid.o(i.pid_go)
    pid_init                                 0x08006f99   Thumb Code    42  pid.o(i.pid_init)
    updateControlSignalValue                 0x08006fdd   Thumb Code    34  main.o(i.updateControlSignalValue)
    AHBPrescTable                            0x08007010   Data          16  system_stm32f7xx.o(.constdata)
    APBPrescTable                            0x08007020   Data           8  system_stm32f7xx.o(.constdata)
    GPIO_PIN                                 0x08007028   Data           4  stm32746g_discovery.o(.constdata)
    BUTTON_PIN                               0x0800702c   Data           6  stm32746g_discovery.o(.constdata)
    BUTTON_IRQn                              0x08007032   Data           6  stm32746g_discovery.o(.constdata)
    COM_TX_PIN                               0x08007038   Data           2  stm32746g_discovery.o(.constdata)
    COM_RX_PIN                               0x0800703a   Data           2  stm32746g_discovery.o(.constdata)
    COM_TX_AF                                0x0800703c   Data           2  stm32746g_discovery.o(.constdata)
    COM_RX_AF                                0x0800703e   Data           2  stm32746g_discovery.o(.constdata)
    Font24_Table                             0x08007040   Data        6840  stm32746g_discovery_lcd.o(.constdata)
    Font20_Table                             0x08008af8   Data        3800  stm32746g_discovery_lcd.o(.constdata)
    Font16_Table                             0x080099d0   Data        3040  stm32746g_discovery_lcd.o(.constdata)
    Font12_Table                             0x0800a5b0   Data        1140  stm32746g_discovery_lcd.o(.constdata)
    Font8_Table                              0x0800aa24   Data         760  stm32746g_discovery_lcd.o(.constdata)
    Region$$Table$$Base                      0x0800ad1c   Number         0  anon$$obj.o(Region$$Table)
    Region$$Table$$Limit                     0x0800ad3c   Number         0  anon$$obj.o(Region$$Table)
    uwTick                                   0x20000000   Data           4  stm32f7xx_hal.o(.data)
    input                                    0x20000004   Data           4  main.o(.data)
    output                                   0x20000008   Data           4  main.o(.data)
    text                                     0x2000000c   Data         100  main.o(.data)
    yzad                                     0x20000070   Data           4  main.o(.data)
    timms                                    0x20000074   Data           4  main.o(.data)
    Ktab                                     0x2000008c   Data        1600  dmc.o(.data)
    Stab                                     0x200006cc   Data         260  dmc.o(.data)
    SystemCoreClock                          0x20000858   Data           4  system_stm32f7xx.o(.data)
    BUTTON_PORT                              0x2000085c   Data          12  stm32746g_discovery.o(.data)
    COM_USART                                0x20000868   Data           4  stm32746g_discovery.o(.data)
    COM_TX_PORT                              0x2000086c   Data           4  stm32746g_discovery.o(.data)
    COM_RX_PORT                              0x20000870   Data           4  stm32746g_discovery.o(.data)
    Font24                                   0x20000874   Data           8  stm32746g_discovery_lcd.o(.data)
    Font20                                   0x2000087c   Data           8  stm32746g_discovery_lcd.o(.data)
    Font16                                   0x20000884   Data           8  stm32746g_discovery_lcd.o(.data)
    Font12                                   0x2000088c   Data           8  stm32746g_discovery_lcd.o(.data)
    Font8                                    0x20000894   Data           8  stm32746g_discovery_lcd.o(.data)
    hadc3                                    0x200008a4   Data          72  main.o(.bss)
    hdma_adc3                                0x200008ec   Data          96  main.o(.bss)
    hi2c1                                    0x2000094c   Data          76  main.o(.bss)
    hdma_i2c1_tx                             0x20000998   Data          96  main.o(.bss)
    hltdc                                    0x200009f8   Data         168  main.o(.bss)
    htim2                                    0x20000aa0   Data          60  main.o(.bss)
    htim3                                    0x20000adc   Data          60  main.o(.bss)
    htim4                                    0x20000b18   Data          60  main.o(.bss)
    htim5                                    0x20000b54   Data          60  main.o(.bss)
    huart                                    0x20000b90   Data         112  main.o(.bss)
    uhADCxConvertedValue                     0x20000c00   Data        2000  main.o(.bss)
    hLtdcHandler                             0x200029d0   Data         168  stm32746g_discovery_lcd.o(.bss)
    sdramHandle                              0x20002b54   Data          52  stm32746g_discovery_sdram.o(.bss)
    __initial_sp                             0x20003078   Data           0  startup_stm32f746xx.o(STACK)



==============================================================================

Memory Map of the image

  Image Entry point : 0x080001c9

  Load Region LR_IROM1 (Base: 0x08000000, Size: 0x0000b5e0, Max: 0x00100000, ABSOLUTE, COMPRESSED[0x0000b354])

    Execution Region ER_IROM1 (Exec base: 0x08000000, Load base: 0x08000000, Size: 0x0000ad3c, Max: 0x00100000, ABSOLUTE)

    Exec Addr    Load Addr    Size         Type   Attr      Idx    E Section Name        Object

    0x08000000   0x08000000   0x000001c8   Data   RO            3    RESET               startup_stm32f746xx.o
    0x080001c8   0x080001c8   0x00000000   Code   RO         5174  * .ARM.Collect$$$$00000000  mc_w.l(entry.o)
    0x080001c8   0x080001c8   0x00000004   Code   RO         5444    .ARM.Collect$$$$00000001  mc_w.l(entry2.o)
    0x080001cc   0x080001cc   0x00000004   Code   RO         5447    .ARM.Collect$$$$00000004  mc_w.l(entry5.o)
    0x080001d0   0x080001d0   0x00000000   Code   RO         5449    .ARM.Collect$$$$00000008  mc_w.l(entry7b.o)
    0x080001d0   0x080001d0   0x00000000   Code   RO         5451    .ARM.Collect$$$$0000000A  mc_w.l(entry8b.o)
    0x080001d0   0x080001d0   0x00000008   Code   RO         5452    .ARM.Collect$$$$0000000B  mc_w.l(entry9a.o)
    0x080001d8   0x080001d8   0x00000000   Code   RO         5454    .ARM.Collect$$$$0000000D  mc_w.l(entry10a.o)
    0x080001d8   0x080001d8   0x00000000   Code   RO         5456    .ARM.Collect$$$$0000000F  mc_w.l(entry11a.o)
    0x080001d8   0x080001d8   0x00000004   Code   RO         5445    .ARM.Collect$$$$00002712  mc_w.l(entry2.o)
    0x080001dc   0x080001dc   0x00000024   Code   RO            4    .text               startup_stm32f746xx.o
    0x08000200   0x08000200   0x00000024   Code   RO         5177    .text               mc_w.l(memcpya.o)
    0x08000224   0x08000224   0x0000002c   Code   RO         5461    .text               mc_w.l(uidiv.o)
    0x08000250   0x08000250   0x00000062   Code   RO         5463    .text               mc_w.l(uldiv.o)
    0x080002b2   0x080002b2   0x00000000   Code   RO         5465    .text               mc_w.l(iusefp.o)
    0x080002b2   0x080002b2   0x0000014e   Code   RO         5466    .text               mf_w.l(dadd.o)
    0x08000400   0x08000400   0x000000e4   Code   RO         5468    .text               mf_w.l(dmul.o)
    0x080004e4   0x080004e4   0x000000de   Code   RO         5470    .text               mf_w.l(ddiv.o)
    0x080005c2   0x080005c2   0x00000030   Code   RO         5472    .text               mf_w.l(dfixul.o)
    0x080005f2   0x080005f2   0x00000002   PAD
    0x080005f4   0x080005f4   0x00000030   Code   RO         5474    .text               mf_w.l(cdrcmple.o)
    0x08000624   0x08000624   0x00000024   Code   RO         5476    .text               mc_w.l(init.o)
    0x08000648   0x08000648   0x0000001e   Code   RO         5479    .text               mc_w.l(llshl.o)
    0x08000666   0x08000666   0x00000020   Code   RO         5481    .text               mc_w.l(llushr.o)
    0x08000686   0x08000686   0x00000024   Code   RO         5483    .text               mc_w.l(llsshr.o)
    0x080006aa   0x080006aa   0x000000ba   Code   RO         5486    .text               mf_w.l(depilogue.o)
    0x08000764   0x08000764   0x0000005e   Code   RO         5496    .text               mc_w.l(__dclz77c.o)
    0x080007c2   0x080007c2   0x0000006e   Code   RO         2832    i.ADC_DMAConvCplt   stm32f7xx_hal_adc.o
    0x08000830   0x08000830   0x0000001a   Code   RO         2833    i.ADC_DMAError      stm32f7xx_hal_adc.o
    0x0800084a   0x0800084a   0x0000000e   Code   RO         2834    i.ADC_DMAHalfConvCplt  stm32f7xx_hal_adc.o
    0x08000858   0x08000858   0x00000178   Code   RO         2835    i.ADC_Init          stm32f7xx_hal_adc.o
    0x080009d0   0x080009d0   0x00000040   Code   RO         4629    i.BSP_LCD_Clear     stm32746g_discovery_lcd.o
    0x08000a10   0x08000a10   0x0000002c   Code   RO         4631    i.BSP_LCD_ClockConfig  stm32746g_discovery_lcd.o
    0x08000a3c   0x08000a3c   0x00000034   Code   RO         4635    i.BSP_LCD_DisplayOn  stm32746g_discovery_lcd.o
    0x08000a70   0x08000a70   0x00000020   Code   RO         4654    i.BSP_LCD_GetXSize  stm32746g_discovery_lcd.o
    0x08000a90   0x08000a90   0x00000020   Code   RO         4655    i.BSP_LCD_GetYSize  stm32746g_discovery_lcd.o
    0x08000ab0   0x08000ab0   0x000000b0   Code   RO         4656    i.BSP_LCD_Init      stm32746g_discovery_lcd.o
    0x08000b60   0x08000b60   0x00000090   Code   RO         4657    i.BSP_LCD_LayerDefaultInit  stm32746g_discovery_lcd.o
    0x08000bf0   0x08000bf0   0x000001ac   Code   RO         4660    i.BSP_LCD_MspInit   stm32746g_discovery_lcd.o
    0x08000d9c   0x08000d9c   0x0000000c   Code   RO         4665    i.BSP_LCD_SelectLayer  stm32746g_discovery_lcd.o
    0x08000da8   0x08000da8   0x0000001c   Code   RO         4669    i.BSP_LCD_SetFont   stm32746g_discovery_lcd.o
    0x08000dc4   0x08000dc4   0x00000018   Code   RO         4677    i.BSP_LCD_SetTransparency  stm32746g_discovery_lcd.o
    0x08000ddc   0x08000ddc   0x00000060   Code   RO         4417    i.BSP_LED_Init      stm32746g_discovery.o
    0x08000e3c   0x08000e3c   0x00000024   Code   RO         4419    i.BSP_LED_On        stm32746g_discovery.o
    0x08000e60   0x08000e60   0x000000ec   Code   RO         4423    i.BSP_PB_Init       stm32746g_discovery.o
    0x08000f4c   0x08000f4c   0x0000008c   Code   RO         5006    i.BSP_SDRAM_Init    stm32746g_discovery_sdram.o
    0x08000fd8   0x08000fd8   0x00000098   Code   RO         5007    i.BSP_SDRAM_Initialization_sequence  stm32746g_discovery_sdram.o
    0x08001070   0x08001070   0x000001c8   Code   RO         5009    i.BSP_SDRAM_MspInit  stm32746g_discovery_sdram.o
    0x08001238   0x08001238   0x00000010   Code   RO         4111    i.DMA1_Stream6_IRQHandler  stm32f7xx_it.o
    0x08001248   0x08001248   0x00000108   Code   RO         3751    i.DMA2D_SetConfig   stm32f7xx_hal_dma2d.o
    0x08001350   0x08001350   0x00000010   Code   RO         4112    i.DMA2_Stream0_IRQHandler  stm32f7xx_it.o
    0x08001360   0x08001360   0x00000034   Code   RO         2310    i.DMA_CalcBaseAndBitshift  stm32f7xx_hal_dma.o
    0x08001394   0x08001394   0x000000ba   Code   RO         2311    i.DMA_CheckFifoParam  stm32f7xx_hal_dma.o
    0x0800144e   0x0800144e   0x0000002c   Code   RO         2312    i.DMA_SetConfig     stm32f7xx_hal_dma.o
    0x0800147a   0x0800147a   0x0000000c   Code   RO         4113    i.EXTI15_10_IRQHandler  stm32f7xx_it.o
    0x08001486   0x08001486   0x00000004   Code   RO         3948    i.Error_Handler     main.o
    0x0800148a   0x0800148a   0x00000074   Code   RO         3616    i.FMC_SDRAM_Init    stm32f7xx_ll_fmc.o
    0x080014fe   0x080014fe   0x0000000e   Code   RO         3617    i.FMC_SDRAM_ProgramRefreshRate  stm32f7xx_ll_fmc.o
    0x0800150c   0x0800150c   0x00000052   Code   RO         3618    i.FMC_SDRAM_SendCommand  stm32f7xx_ll_fmc.o
    0x0800155e   0x0800155e   0x00000002   PAD
    0x08001560   0x08001560   0x0000009c   Code   RO         3620    i.FMC_SDRAM_Timing_Init  stm32f7xx_ll_fmc.o
    0x080015fc   0x080015fc   0x000001b4   Code   RO         2837    i.HAL_ADC_ConfigChannel  stm32f7xx_hal_adc.o
    0x080017b0   0x080017b0   0x00000058   Code   RO         3949    i.HAL_ADC_ConvCpltCallback  main.o
    0x08001808   0x08001808   0x00000002   Code   RO         2839    i.HAL_ADC_ConvHalfCpltCallback  stm32f7xx_hal_adc.o
    0x0800180a   0x0800180a   0x00000002   Code   RO         2841    i.HAL_ADC_ErrorCallback  stm32f7xx_hal_adc.o
    0x0800180c   0x0800180c   0x00000068   Code   RO         2846    i.HAL_ADC_Init      stm32f7xx_hal_adc.o
    0x08001874   0x08001874   0x000000ec   Code   RO         4188    i.HAL_ADC_MspInit   stm32f7xx_hal_msp.o
    0x08001960   0x08001960   0x00000100   Code   RO         2852    i.HAL_ADC_Start     stm32f7xx_hal_adc.o
    0x08001a60   0x08001a60   0x00000148   Code   RO         2853    i.HAL_ADC_Start_DMA  stm32f7xx_hal_adc.o
    0x08001ba8   0x08001ba8   0x000000e8   Code   RO         3763    i.HAL_DMA2D_ConfigLayer  stm32f7xx_hal_dma2d.o
    0x08001c90   0x08001c90   0x00000060   Code   RO         3771    i.HAL_DMA2D_Init    stm32f7xx_hal_dma2d.o
    0x08001cf0   0x08001cf0   0x00000002   Code   RO         3774    i.HAL_DMA2D_MspInit  stm32f7xx_hal_dma2d.o
    0x08001cf2   0x08001cf2   0x00000168   Code   RO         3775    i.HAL_DMA2D_PollForTransfer  stm32f7xx_hal_dma2d.o
    0x08001e5a   0x08001e5a   0x0000004e   Code   RO         3778    i.HAL_DMA2D_Start   stm32f7xx_hal_dma2d.o
    0x08001ea8   0x08001ea8   0x00000028   Code   RO         2314    i.HAL_DMA_Abort_IT  stm32f7xx_hal_dma.o
    0x08001ed0   0x08001ed0   0x00000062   Code   RO         2315    i.HAL_DMA_DeInit    stm32f7xx_hal_dma.o
    0x08001f32   0x08001f32   0x00000002   PAD
    0x08001f34   0x08001f34   0x00000248   Code   RO         2318    i.HAL_DMA_IRQHandler  stm32f7xx_hal_dma.o
    0x0800217c   0x0800217c   0x000000e8   Code   RO         2319    i.HAL_DMA_Init      stm32f7xx_hal_dma.o
    0x08002264   0x08002264   0x0000009e   Code   RO         2323    i.HAL_DMA_Start_IT  stm32f7xx_hal_dma.o
    0x08002302   0x08002302   0x0000001a   Code   RO         2680    i.HAL_Delay         stm32f7xx_hal.o
    0x0800231c   0x0800231c   0x00000180   Code   RO         2185    i.HAL_GPIO_DeInit   stm32f7xx_hal_gpio.o
    0x0800249c   0x0800249c   0x00000002   Code   RO         3950    i.HAL_GPIO_EXTI_Callback  main.o
    0x0800249e   0x0800249e   0x00000002   PAD
    0x080024a0   0x080024a0   0x0000001c   Code   RO         2187    i.HAL_GPIO_EXTI_IRQHandler  stm32f7xx_hal_gpio.o
    0x080024bc   0x080024bc   0x00000218   Code   RO         2188    i.HAL_GPIO_Init     stm32f7xx_hal_gpio.o
    0x080026d4   0x080026d4   0x0000000c   Code   RO         2192    i.HAL_GPIO_WritePin  stm32f7xx_hal_gpio.o
    0x080026e0   0x080026e0   0x0000000c   Code   RO         2688    i.HAL_GetTick       stm32f7xx_hal.o
    0x080026ec   0x080026ec   0x000000bc   Code   RO          499    i.HAL_I2C_Init      stm32f7xx_hal_i2c.o
    0x080027a8   0x080027a8   0x00000174   Code   RO          510    i.HAL_I2C_Master_Transmit  stm32f7xx_hal_i2c.o
    0x0800291c   0x0800291c   0x000000a4   Code   RO         4190    i.HAL_I2C_MspInit   stm32f7xx_hal_msp.o
    0x080029c0   0x080029c0   0x00000010   Code   RO         2689    i.HAL_IncTick       stm32f7xx_hal.o
    0x080029d0   0x080029d0   0x00000016   Code   RO         2690    i.HAL_Init          stm32f7xx_hal.o
    0x080029e6   0x080029e6   0x00000002   PAD
    0x080029e8   0x080029e8   0x00000028   Code   RO         2691    i.HAL_InitTick      stm32f7xx_hal.o
    0x08002a10   0x08002a10   0x0000005e   Code   RO         2419    i.HAL_LTDC_ConfigLayer  stm32f7xx_hal_ltdc.o
    0x08002a6e   0x08002a6e   0x00000008   Code   RO         2434    i.HAL_LTDC_GetState  stm32f7xx_hal_ltdc.o
    0x08002a76   0x08002a76   0x00000002   PAD
    0x08002a78   0x08002a78   0x00000128   Code   RO         2436    i.HAL_LTDC_Init     stm32f7xx_hal_ltdc.o
    0x08002ba0   0x08002ba0   0x000000d4   Code   RO         4192    i.HAL_LTDC_MspInit  stm32f7xx_hal_msp.o
    0x08002c74   0x08002c74   0x0000005c   Code   RO         2445    i.HAL_LTDC_SetAlpha  stm32f7xx_hal_ltdc.o
    0x08002cd0   0x08002cd0   0x00000056   Code   RO         4193    i.HAL_MspInit       stm32f7xx_hal_msp.o
    0x08002d26   0x08002d26   0x0000001a   Code   RO           16    i.HAL_NVIC_EnableIRQ  stm32f7xx_hal_cortex.o
    0x08002d40   0x08002d40   0x0000007c   Code   RO           22    i.HAL_NVIC_SetPriority  stm32f7xx_hal_cortex.o
    0x08002dbc   0x08002dbc   0x00000028   Code   RO           23    i.HAL_NVIC_SetPriorityGrouping  stm32f7xx_hal_cortex.o
    0x08002de4   0x08002de4   0x00000918   Code   RO         3122    i.HAL_RCCEx_PeriphCLKConfig  stm32f7xx_hal_rcc_ex.o
    0x080036fc   0x080036fc   0x000001b4   Code   RO         2084    i.HAL_RCC_ClockConfig  stm32f7xx_hal_rcc.o
    0x080038b0   0x080038b0   0x0000000c   Code   RO         2089    i.HAL_RCC_GetHCLKFreq  stm32f7xx_hal_rcc.o
    0x080038bc   0x080038bc   0x0000002c   Code   RO         2091    i.HAL_RCC_GetPCLK1Freq  stm32f7xx_hal_rcc.o
    0x080038e8   0x080038e8   0x0000002c   Code   RO         2092    i.HAL_RCC_GetPCLK2Freq  stm32f7xx_hal_rcc.o
    0x08003914   0x08003914   0x000000b4   Code   RO         2093    i.HAL_RCC_GetSysClockFreq  stm32f7xx_hal_rcc.o
    0x080039c8   0x080039c8   0x000004c0   Code   RO         2096    i.HAL_RCC_OscConfig  stm32f7xx_hal_rcc.o
    0x08003e88   0x08003e88   0x00000040   Code   RO         3162    i.HAL_SDRAM_Init    stm32f7xx_hal_sdram.o
    0x08003ec8   0x08003ec8   0x00000002   Code   RO         3164    i.HAL_SDRAM_MspInit  stm32f7xx_hal_sdram.o
    0x08003eca   0x08003eca   0x00000028   Code   RO         3165    i.HAL_SDRAM_ProgramRefreshRate  stm32f7xx_hal_sdram.o
    0x08003ef2   0x08003ef2   0x0000003a   Code   RO         3171    i.HAL_SDRAM_SendCommand  stm32f7xx_hal_sdram.o
    0x08003f2c   0x08003f2c   0x00000028   Code   RO           25    i.HAL_SYSTICK_CLKSourceConfig  stm32f7xx_hal_cortex.o
    0x08003f54   0x08003f54   0x00000002   Code   RO           26    i.HAL_SYSTICK_Callback  stm32f7xx_hal_cortex.o
    0x08003f56   0x08003f56   0x00000034   Code   RO           27    i.HAL_SYSTICK_Config  stm32f7xx_hal_cortex.o
    0x08003f8a   0x08003f8a   0x00000008   Code   RO           28    i.HAL_SYSTICK_IRQHandler  stm32f7xx_hal_cortex.o
    0x08003f92   0x08003f92   0x00000002   Code   RO          916    i.HAL_TIMEx_BreakCallback  stm32f7xx_hal_tim_ex.o
    0x08003f94   0x08003f94   0x00000002   Code   RO          917    i.HAL_TIMEx_CommutationCallback  stm32f7xx_hal_tim_ex.o
    0x08003f96   0x08003f96   0x00000002   PAD
    0x08003f98   0x08003f98   0x0000006c   Code   RO          934    i.HAL_TIMEx_MasterConfigSynchronization  stm32f7xx_hal_tim_ex.o
    0x08004004   0x08004004   0x0000002e   Code   RO         1422    i.HAL_TIM_Base_Init  stm32f7xx_hal_tim.o
    0x08004032   0x08004032   0x00000002   PAD
    0x08004034   0x08004034   0x000000a4   Code   RO         4195    i.HAL_TIM_Base_MspInit  stm32f7xx_hal_msp.o
    0x080040d8   0x080040d8   0x0000001e   Code   RO         1427    i.HAL_TIM_Base_Start_IT  stm32f7xx_hal_tim.o
    0x080040f6   0x080040f6   0x00000002   PAD
    0x080040f8   0x080040f8   0x00000138   Code   RO         1431    i.HAL_TIM_ConfigClockSource  stm32f7xx_hal_tim.o
    0x08004230   0x08004230   0x00000002   Code   RO         1451    i.HAL_TIM_IC_CaptureCallback  stm32f7xx_hal_tim.o
    0x08004232   0x08004232   0x000001b8   Code   RO         1464    i.HAL_TIM_IRQHandler  stm32f7xx_hal_tim.o
    0x080043ea   0x080043ea   0x00000002   Code   RO         1467    i.HAL_TIM_OC_DelayElapsedCallback  stm32f7xx_hal_tim.o
    0x080043ec   0x080043ec   0x00000002   Code   RO         1494    i.HAL_TIM_PWM_PulseFinishedCallback  stm32f7xx_hal_tim.o
    0x080043ee   0x080043ee   0x00000002   PAD
    0x080043f0   0x080043f0   0x00000194   Code   RO         3952    i.HAL_TIM_PeriodElapsedCallback  main.o
    0x08004584   0x08004584   0x00000002   Code   RO         1505    i.HAL_TIM_TriggerCallback  stm32f7xx_hal_tim.o
    0x08004586   0x08004586   0x00000048   Code   RO         3326    i.HAL_UART_DeInit   stm32f7xx_hal_uart.o
    0x080045ce   0x080045ce   0x00000002   Code   RO         3327    i.HAL_UART_ErrorCallback  stm32f7xx_hal_uart.o
    0x080045d0   0x080045d0   0x00000014   Code   RO         3329    i.HAL_UART_GetState  stm32f7xx_hal_uart.o
    0x080045e4   0x080045e4   0x0000015c   Code   RO         3330    i.HAL_UART_IRQHandler  stm32f7xx_hal_uart.o
    0x08004740   0x08004740   0x00000078   Code   RO         3331    i.HAL_UART_Init     stm32f7xx_hal_uart.o
    0x080047b8   0x080047b8   0x00000038   Code   RO         4196    i.HAL_UART_MspDeInit  stm32f7xx_hal_msp.o
    0x080047f0   0x080047f0   0x00000098   Code   RO         4197    i.HAL_UART_MspInit  stm32f7xx_hal_msp.o
    0x08004888   0x08004888   0x00000002   Code   RO         3337    i.HAL_UART_RxCpltCallback  stm32f7xx_hal_uart.o
    0x0800488a   0x0800488a   0x0000005a   Code   RO         3341    i.HAL_UART_Transmit_IT  stm32f7xx_hal_uart.o
    0x080048e4   0x080048e4   0x00000002   Code   RO         3342    i.HAL_UART_TxCpltCallback  stm32f7xx_hal_uart.o
    0x080048e6   0x080048e6   0x00000028   Code   RO          541    i.I2C_Flush_TXDR    stm32f7xx_hal_i2c.o
    0x0800490e   0x0800490e   0x00000002   PAD
    0x08004910   0x08004910   0x0000008c   Code   RO          549    i.I2C_IsAcknowledgeFailed  stm32f7xx_hal_i2c.o
    0x0800499c   0x0800499c   0x00000030   Code   RO          556    i.I2C_TransferConfig  stm32f7xx_hal_i2c.o
    0x080049cc   0x080049cc   0x00000056   Code   RO          557    i.I2C_WaitOnFlagUntilTimeout  stm32f7xx_hal_i2c.o
    0x08004a22   0x08004a22   0x00000056   Code   RO          559    i.I2C_WaitOnSTOPFlagUntilTimeout  stm32f7xx_hal_i2c.o
    0x08004a78   0x08004a78   0x0000005a   Code   RO          560    i.I2C_WaitOnTXISFlagUntilTimeout  stm32f7xx_hal_i2c.o
    0x08004ad2   0x08004ad2   0x00000048   Code   RO         3953    i.LCD_Config        main.o
    0x08004b1a   0x08004b1a   0x00000002   PAD
    0x08004b1c   0x08004b1c   0x00000088   Code   RO         4684    i.LL_FillBuffer     stm32746g_discovery_lcd.o
    0x08004ba4   0x08004ba4   0x00000212   Code   RO         2455    i.LTDC_SetConfig    stm32f7xx_hal_ltdc.o
    0x08004db6   0x08004db6   0x00000002   PAD
    0x08004db8   0x08004db8   0x0000005c   Code   RO         3954    i.MX_ADC3_Init      main.o
    0x08004e14   0x08004e14   0x00000034   Code   RO         3955    i.MX_DMA_Init       main.o
    0x08004e48   0x08004e48   0x000006fc   Code   RO         3956    i.MX_GPIO_Init      main.o
    0x08005544   0x08005544   0x0000003c   Code   RO         3957    i.MX_I2C1_Init      main.o
    0x08005580   0x08005580   0x000000a8   Code   RO         3958    i.MX_LTDC_Init      main.o
    0x08005628   0x08005628   0x00000078   Code   RO         3959    i.MX_TIM2_Init      main.o
    0x080056a0   0x080056a0   0x00000078   Code   RO         3960    i.MX_TIM3_Init      main.o
    0x08005718   0x08005718   0x0000007c   Code   RO         3961    i.MX_TIM4_Init      main.o
    0x08005794   0x08005794   0x0000007c   Code   RO         3962    i.MX_TIM5_Init      main.o
    0x08005810   0x08005810   0x00000048   Code   RO         3963    i.MX_UART_Init      main.o
    0x08005858   0x08005858   0x00000010   Code   RO           29    i.NVIC_GetPriorityGrouping  stm32f7xx_hal_cortex.o
    0x08005868   0x08005868   0x00000028   Code   RO           30    i.NVIC_SetPriority  stm32f7xx_hal_cortex.o
    0x08005890   0x08005890   0x0000000c   Code   RO         4114    i.SysTick_Handler   stm32f7xx_it.o
    0x0800589c   0x0800589c   0x000000aa   Code   RO         3964    i.SystemClock_Config  main.o
    0x08005946   0x08005946   0x00000002   PAD
    0x08005948   0x08005948   0x00000064   Code   RO         4372    i.SystemInit        system_stm32f7xx.o
    0x080059ac   0x080059ac   0x00000010   Code   RO         4115    i.TIM2_IRQHandler   stm32f7xx_it.o
    0x080059bc   0x080059bc   0x00000010   Code   RO         4116    i.TIM3_IRQHandler   stm32f7xx_it.o
    0x080059cc   0x080059cc   0x00000010   Code   RO         4117    i.TIM4_IRQHandler   stm32f7xx_it.o
    0x080059dc   0x080059dc   0x00000010   Code   RO         4118    i.TIM5_IRQHandler   stm32f7xx_it.o
    0x080059ec   0x080059ec   0x000000e4   Code   RO         1506    i.TIM_Base_SetConfig  stm32f7xx_hal_tim.o
    0x08005ad0   0x08005ad0   0x00000018   Code   RO         1513    i.TIM_ETR_SetConfig  stm32f7xx_hal_tim.o
    0x08005ae8   0x08005ae8   0x00000014   Code   RO         1514    i.TIM_ITRx_SetConfig  stm32f7xx_hal_tim.o
    0x08005afc   0x08005afc   0x0000002a   Code   RO         1520    i.TIM_TI1_ConfigInputStage  stm32f7xx_hal_tim.o
    0x08005b26   0x08005b26   0x0000002c   Code   RO         1522    i.TIM_TI2_ConfigInputStage  stm32f7xx_hal_tim.o
    0x08005b52   0x08005b52   0x000000ea   Code   RO         3344    i.UART_AdvFeatureConfig  stm32f7xx_hal_uart.o
    0x08005c3c   0x08005c3c   0x00000074   Code   RO         3345    i.UART_CheckIdleState  stm32f7xx_hal_uart.o
    0x08005cb0   0x08005cb0   0x00000018   Code   RO         3346    i.UART_DMAAbortOnError  stm32f7xx_hal_uart.o
    0x08005cc8   0x08005cc8   0x00000020   Code   RO         3352    i.UART_EndRxTransfer  stm32f7xx_hal_uart.o
    0x08005ce8   0x08005ce8   0x00000020   Code   RO         3353    i.UART_EndTransmit_IT  stm32f7xx_hal_uart.o
    0x08005d08   0x08005d08   0x00000088   Code   RO         3355    i.UART_Receive_IT   stm32f7xx_hal_uart.o
    0x08005d90   0x08005d90   0x0000038c   Code   RO         3356    i.UART_SetConfig    stm32f7xx_hal_uart.o
    0x0800611c   0x0800611c   0x0000006a   Code   RO         3357    i.UART_Transmit_IT  stm32f7xx_hal_uart.o
    0x08006186   0x08006186   0x0000006c   Code   RO         3358    i.UART_WaitOnFlagUntilTimeout  stm32f7xx_hal_uart.o
    0x080061f2   0x080061f2   0x00000002   PAD
    0x080061f4   0x080061f4   0x00000010   Code   RO         4119    i.USART1_IRQHandler  stm32f7xx_it.o
    0x08006204   0x08006204   0x00000028   Code   RO         5416    i.__0sprintf        mc_w.l(printfa.o)
    0x0800622c   0x0800622c   0x0000000e   Code   RO         5490    i.__scatterload_copy  mc_w.l(handlers.o)
    0x0800623a   0x0800623a   0x00000002   Code   RO         5491    i.__scatterload_null  mc_w.l(handlers.o)
    0x0800623c   0x0800623c   0x0000000e   Code   RO         5492    i.__scatterload_zeroinit  mc_w.l(handlers.o)
    0x0800624a   0x0800624a   0x00000002   PAD
    0x0800624c   0x0800624c   0x00000184   Code   RO         5421    i._fp_digits        mc_w.l(printfa.o)
    0x080063d0   0x080063d0   0x000006dc   Code   RO         5422    i._printf_core      mc_w.l(printfa.o)
    0x08006aac   0x08006aac   0x00000024   Code   RO         5423    i._printf_post_padding  mc_w.l(printfa.o)
    0x08006ad0   0x08006ad0   0x0000002e   Code   RO         5424    i._printf_pre_padding  mc_w.l(printfa.o)
    0x08006afe   0x08006afe   0x0000000a   Code   RO         5426    i._sputc            mc_w.l(printfa.o)
    0x08006b08   0x08006b08   0x000000e8   Code   RO         4269    i.dmc_go            dmc.o
    0x08006bf0   0x08006bf0   0x000000d0   Code   RO         4270    i.dmc_init          dmc.o
    0x08006cc0   0x08006cc0   0x000000d4   Code   RO         3965    i.main              main.o
    0x08006d94   0x08006d94   0x00000020   Code   RO         4303    i.matrix_access     matrix.o
    0x08006db4   0x08006db4   0x000000a8   Code   RO         4304    i.matrix_mult       matrix.o
    0x08006e5c   0x08006e5c   0x0000013c   Code   RO         4339    i.pid_go            pid.o
    0x08006f98   0x08006f98   0x00000044   Code   RO         4340    i.pid_init          pid.o
    0x08006fdc   0x08006fdc   0x0000002c   Code   RO         3966    i.updateControlSignalValue  main.o
    0x08007008   0x08007008   0x00000008   Data   RO         2325    .constdata          stm32f7xx_hal_dma.o
    0x08007010   0x08007010   0x00000018   Data   RO         4373    .constdata          system_stm32f7xx.o
    0x08007028   0x08007028   0x00000018   Data   RO         4443    .constdata          stm32746g_discovery.o
    0x08007040   0x08007040   0x00003cdc   Data   RO         4686    .constdata          stm32746g_discovery_lcd.o
    0x0800ad1c   0x0800ad1c   0x00000020   Data   RO         5488    Region$$Table       anon$$obj.o


    Execution Region RW_IRAM1 (Exec base: 0x20000000, Load base: 0x0800ad3c, Size: 0x00003078, Max: 0x00050000, ABSOLUTE, COMPRESSED[0x00000618])

    Exec Addr    Load Addr    Size         Type   Attr      Idx    E Section Name        Object

    0x20000000   COMPRESSED   0x00000004   Data   RW         2696    .data               stm32f7xx_hal.o
    0x20000004   COMPRESSED   0x00000088   Data   RW         3968    .data               main.o
    0x2000008c   COMPRESSED   0x00000798   Data   RW         4272    .data               dmc.o
    0x20000824   COMPRESSED   0x00000034   Data   RW         4342    .data               pid.o
    0x20000858   COMPRESSED   0x00000004   Data   RW         4374    .data               system_stm32f7xx.o
    0x2000085c   COMPRESSED   0x00000018   Data   RW         4444    .data               stm32746g_discovery.o
    0x20000874   COMPRESSED   0x0000002c   Data   RW         4687    .data               stm32746g_discovery_lcd.o
    0x200008a0   COMPRESSED   0x00000002   Data   RW         5016    .data               stm32746g_discovery_sdram.o
    0x200008a2   COMPRESSED   0x00000002   PAD
    0x200008a4        -       0x00000b2c   Zero   RW         3967    .bss                main.o
    0x200013d0        -       0x00001600   Zero   RW         4271    .bss                dmc.o
    0x200029d0        -       0x00000184   Zero   RW         4685    .bss                stm32746g_discovery_lcd.o
    0x20002b54        -       0x00000120   Zero   RW         5015    .bss                stm32746g_discovery_sdram.o
    0x20002c74   COMPRESSED   0x00000004   PAD
    0x20002c78        -       0x00000400   Zero   RW            1    STACK               startup_stm32f746xx.o

